{
  "contractName": "Concert",
  "abi": [
    {
      "anonymous": false,
      "inputs": [
        {
          "indexed": false,
          "internalType": "uint256",
          "name": "id",
          "type": "uint256"
        },
        {
          "indexed": false,
          "internalType": "string",
          "name": "date",
          "type": "string"
        },
        {
          "indexed": false,
          "internalType": "string",
          "name": "billing",
          "type": "string"
        },
        {
          "indexed": false,
          "internalType": "string",
          "name": "city",
          "type": "string"
        },
        {
          "indexed": false,
          "internalType": "string",
          "name": "venue",
          "type": "string"
        }
      ],
      "name": "EventCreated",
      "type": "event"
    },
    {
      "anonymous": false,
      "inputs": [
        {
          "indexed": false,
          "internalType": "uint256",
          "name": "guarantee",
          "type": "uint256"
        },
        {
          "indexed": false,
          "internalType": "uint256",
          "name": "deposit",
          "type": "uint256"
        },
        {
          "indexed": false,
          "internalType": "uint256",
          "name": "dueDate",
          "type": "uint256"
        }
      ],
      "name": "OfferApproved",
      "type": "event"
    },
    {
      "anonymous": false,
      "inputs": [
        {
          "indexed": false,
          "internalType": "uint256",
          "name": "id",
          "type": "uint256"
        },
        {
          "indexed": false,
          "internalType": "uint256",
          "name": "guarantee",
          "type": "uint256"
        },
        {
          "indexed": false,
          "internalType": "uint256",
          "name": "deposit",
          "type": "uint256"
        },
        {
          "indexed": false,
          "internalType": "uint256",
          "name": "dueDate",
          "type": "uint256"
        }
      ],
      "name": "OfferCreated",
      "type": "event"
    },
    {
      "anonymous": false,
      "inputs": [
        {
          "indexed": false,
          "internalType": "address",
          "name": "purchaser",
          "type": "address"
        },
        {
          "indexed": false,
          "internalType": "address",
          "name": "artist",
          "type": "address"
        }
      ],
      "name": "PartiesCreated",
      "type": "event"
    },
    {
      "anonymous": false,
      "inputs": [
        {
          "indexed": false,
          "internalType": "uint256",
          "name": "guarantee",
          "type": "uint256"
        },
        {
          "indexed": false,
          "internalType": "uint256",
          "name": "deposit",
          "type": "uint256"
        },
        {
          "indexed": false,
          "internalType": "uint256",
          "name": "dueDate",
          "type": "uint256"
        }
      ],
      "name": "ShowSettled",
      "type": "event"
    },
    {
      "inputs": [],
      "name": "artist",
      "outputs": [
        {
          "internalType": "address payable",
          "name": "",
          "type": "address"
        }
      ],
      "stateMutability": "view",
      "type": "function",
      "constant": true
    },
    {
      "inputs": [
        {
          "internalType": "address",
          "name": "",
          "type": "address"
        }
      ],
      "name": "balanceReceived",
      "outputs": [
        {
          "internalType": "uint256",
          "name": "",
          "type": "uint256"
        }
      ],
      "stateMutability": "view",
      "type": "function",
      "constant": true
    },
    {
      "inputs": [],
      "name": "nextEventId",
      "outputs": [
        {
          "internalType": "uint256",
          "name": "",
          "type": "uint256"
        }
      ],
      "stateMutability": "view",
      "type": "function",
      "constant": true
    },
    {
      "inputs": [],
      "name": "nextId",
      "outputs": [
        {
          "internalType": "uint256",
          "name": "",
          "type": "uint256"
        }
      ],
      "stateMutability": "view",
      "type": "function",
      "constant": true
    },
    {
      "inputs": [
        {
          "internalType": "uint256",
          "name": "",
          "type": "uint256"
        }
      ],
      "name": "offers",
      "outputs": [
        {
          "internalType": "uint256",
          "name": "id",
          "type": "uint256"
        },
        {
          "internalType": "uint256",
          "name": "guarantee",
          "type": "uint256"
        },
        {
          "internalType": "uint256",
          "name": "deposit",
          "type": "uint256"
        },
        {
          "internalType": "uint256",
          "name": "dueDate",
          "type": "uint256"
        }
      ],
      "stateMutability": "view",
      "type": "function",
      "constant": true
    },
    {
      "inputs": [],
      "name": "purchaser",
      "outputs": [
        {
          "internalType": "address payable",
          "name": "",
          "type": "address"
        }
      ],
      "stateMutability": "view",
      "type": "function",
      "constant": true
    },
    {
      "inputs": [
        {
          "internalType": "uint256",
          "name": "",
          "type": "uint256"
        }
      ],
      "name": "shows",
      "outputs": [
        {
          "internalType": "uint256",
          "name": "id",
          "type": "uint256"
        },
        {
          "internalType": "string",
          "name": "date",
          "type": "string"
        },
        {
          "internalType": "string",
          "name": "billing",
          "type": "string"
        },
        {
          "internalType": "string",
          "name": "city",
          "type": "string"
        },
        {
          "internalType": "string",
          "name": "venue",
          "type": "string"
        }
      ],
      "stateMutability": "view",
      "type": "function",
      "constant": true
    },
    {
      "inputs": [
        {
          "internalType": "string",
          "name": "date",
          "type": "string"
        },
        {
          "internalType": "string",
          "name": "billing",
          "type": "string"
        },
        {
          "internalType": "string",
          "name": "city",
          "type": "string"
        },
        {
          "internalType": "string",
          "name": "venue",
          "type": "string"
        }
      ],
      "name": "createEvent",
      "outputs": [],
      "stateMutability": "nonpayable",
      "type": "function"
    },
    {
      "inputs": [],
      "name": "readEvent",
      "outputs": [
        {
          "components": [
            {
              "internalType": "uint256",
              "name": "id",
              "type": "uint256"
            },
            {
              "internalType": "string",
              "name": "date",
              "type": "string"
            },
            {
              "internalType": "string",
              "name": "billing",
              "type": "string"
            },
            {
              "internalType": "string",
              "name": "city",
              "type": "string"
            },
            {
              "internalType": "string",
              "name": "venue",
              "type": "string"
            }
          ],
          "internalType": "struct Concert.Show[]",
          "name": "",
          "type": "tuple[]"
        }
      ],
      "stateMutability": "view",
      "type": "function",
      "constant": true
    },
    {
      "inputs": [
        {
          "internalType": "uint256",
          "name": "guarantee",
          "type": "uint256"
        },
        {
          "internalType": "uint256",
          "name": "deposit",
          "type": "uint256"
        },
        {
          "internalType": "uint256",
          "name": "dueDate",
          "type": "uint256"
        }
      ],
      "name": "createOffer",
      "outputs": [],
      "stateMutability": "nonpayable",
      "type": "function"
    },
    {
      "inputs": [
        {
          "internalType": "address payable",
          "name": "_purchaser",
          "type": "address"
        },
        {
          "internalType": "address payable",
          "name": "_artist",
          "type": "address"
        }
      ],
      "name": "createParties",
      "outputs": [],
      "stateMutability": "nonpayable",
      "type": "function"
    },
    {
      "inputs": [],
      "name": "getAllOffers",
      "outputs": [
        {
          "components": [
            {
              "internalType": "uint256",
              "name": "id",
              "type": "uint256"
            },
            {
              "internalType": "uint256",
              "name": "guarantee",
              "type": "uint256"
            },
            {
              "internalType": "uint256",
              "name": "deposit",
              "type": "uint256"
            },
            {
              "internalType": "uint256",
              "name": "dueDate",
              "type": "uint256"
            }
          ],
          "internalType": "struct Concert.Offer[]",
          "name": "",
          "type": "tuple[]"
        }
      ],
      "stateMutability": "view",
      "type": "function",
      "constant": true
    },
    {
      "inputs": [
        {
          "internalType": "uint256",
          "name": "id",
          "type": "uint256"
        }
      ],
      "name": "getSingleOffer",
      "outputs": [
        {
          "internalType": "uint256",
          "name": "",
          "type": "uint256"
        },
        {
          "internalType": "uint256",
          "name": "",
          "type": "uint256"
        },
        {
          "internalType": "uint256",
          "name": "",
          "type": "uint256"
        },
        {
          "internalType": "uint256",
          "name": "",
          "type": "uint256"
        }
      ],
      "stateMutability": "view",
      "type": "function",
      "constant": true
    },
    {
      "inputs": [
        {
          "internalType": "uint256",
          "name": "_index",
          "type": "uint256"
        }
      ],
      "name": "approveOffer",
      "outputs": [],
      "stateMutability": "nonpayable",
      "type": "function"
    },
    {
      "inputs": [
        {
          "internalType": "uint256",
          "name": "_index",
          "type": "uint256"
        }
      ],
      "name": "receiveFullGuarantee",
      "outputs": [],
      "stateMutability": "nonpayable",
      "type": "function"
    },
    {
      "inputs": [],
      "name": "getBalance",
      "outputs": [
        {
          "internalType": "uint256",
          "name": "",
          "type": "uint256"
        }
      ],
      "stateMutability": "view",
      "type": "function",
      "constant": true
    },
    {
      "inputs": [],
      "name": "sendMoney",
      "outputs": [],
      "stateMutability": "payable",
      "type": "function",
      "payable": true
    },
    {
      "inputs": [
        {
          "internalType": "uint256",
          "name": "_index",
          "type": "uint256"
        }
      ],
      "name": "cancelShow",
      "outputs": [],
      "stateMutability": "nonpayable",
      "type": "function"
    },
    {
      "inputs": [],
      "name": "withdraw",
      "outputs": [],
      "stateMutability": "nonpayable",
      "type": "function"
    }
  ],
  "bytecode": "0x608060405234801561001057600080fd5b5060016000819055506122a5806100286000396000f3fe6080604052600436106101145760003560e01c806387493e10116100a0578063cbedbf5a11610064578063cbedbf5a14610382578063d18a42e11461038c578063dc35a900146103c9578063e43f69c6146103f2578063fa3a72711461043257610114565b806387493e101461029a5780638a72ea6a146102c35780639f9d903a14610303578063a16552781461032e578063a5d7c10a1461035957610114565b80633ccfd60b116100e75780633ccfd60b146101d957806343bc1612146101f05780635a77dc461461021b57806361b8ce8c146102465780636ba9bc411461027157610114565b806305aea97c1461011957806312065fe0146101445780632d587af61461016f57806330f0931e14610198575b600080fd5b34801561012557600080fd5b5061012e61045b565b60405161013b9190611d10565b60405180910390f35b34801561015057600080fd5b5061015961070c565b6040516101669190611df2565b60405180910390f35b34801561017b57600080fd5b5061019660048036038101906101919190611825565b610714565b005b3480156101a457600080fd5b506101bf60048036038101906101ba9190611825565b61085d565b6040516101d0959493929190611e0d565b60405180910390f35b3480156101e557600080fd5b506101ee610ac3565b005b3480156101fc57600080fd5b50610205610c14565b6040516102129190611caa565b60405180910390f35b34801561022757600080fd5b50610230610c3a565b60405161023d9190611caa565b60405180910390f35b34801561025257600080fd5b5061025b610c60565b6040516102689190611df2565b60405180910390f35b34801561027d57600080fd5b5061029860048036038101906102939190611825565b610c66565b005b3480156102a657600080fd5b506102c160048036038101906102bc9190611726565b610e54565b005b3480156102cf57600080fd5b506102ea60048036038101906102e59190611825565b610f13565b6040516102fa9493929190611e7c565b60405180910390f35b34801561030f57600080fd5b50610318610f53565b6040516103259190611df2565b60405180910390f35b34801561033a57600080fd5b50610343610f59565b6040516103509190611cee565b60405180910390f35b34801561036557600080fd5b50610380600480360381019061037b9190611825565b610fe0565b005b61038a611169565b005b34801561039857600080fd5b506103b360048036038101906103ae91906116fd565b611251565b6040516103c09190611df2565b60405180910390f35b3480156103d557600080fd5b506103f060048036038101906103eb919061184e565b611269565b005b3480156103fe57600080fd5b5061041960048036038101906104149190611825565b6112fe565b6040516104299493929190611e7c565b60405180910390f35b34801561043e57600080fd5b5061045960048036038101906104549190611762565b6114c1565b005b60606001805480602002602001604051908101604052809291908181526020016000905b8282101561070357838290600052602060002090600502016040518060a0016040529081600082015481526020016001820180546104bc90612111565b80601f01602080910402602001604051908101604052809291908181526020018280546104e890612111565b80156105355780601f1061050a57610100808354040283529160200191610535565b820191906000526020600020905b81548152906001019060200180831161051857829003601f168201915b5050505050815260200160028201805461054e90612111565b80601f016020809104026020016040519081016040528092919081815260200182805461057a90612111565b80156105c75780601f1061059c576101008083540402835291602001916105c7565b820191906000526020600020905b8154815290600101906020018083116105aa57829003601f168201915b505050505081526020016003820180546105e090612111565b80601f016020809104026020016040519081016040528092919081815260200182805461060c90612111565b80156106595780601f1061062e57610100808354040283529160200191610659565b820191906000526020600020905b81548152906001019060200180831161063c57829003601f168201915b5050505050815260200160048201805461067290612111565b80601f016020809104026020016040519081016040528092919081815260200182805461069e90612111565b80156106eb5780601f106106c0576101008083540402835291602001916106eb565b820191906000526020600020905b8154815290600101906020018083116106ce57829003601f168201915b5050505050815250508152602001906001019061047f565b50505050905090565b600047905090565b600460009054906101000a900473ffffffffffffffffffffffffffffffffffffffff1673ffffffffffffffffffffffffffffffffffffffff163373ffffffffffffffffffffffffffffffffffffffff16146107a4576040517f08c379a000000000000000000000000000000000000000000000000000000000815260040161079b90611d92565b60405180910390fd5b6000600782815481106107e0577f4e487b7100000000000000000000000000000000000000000000000000000000600052603260045260246000fd5b90600052602060002090600402019050600460009054906101000a900473ffffffffffffffffffffffffffffffffffffffff1673ffffffffffffffffffffffffffffffffffffffff166108fc479081150290604051600060405180830381858888f19350505050158015610858573d6000803e3d6000fd5b505050565b6001818154811061086d57600080fd5b906000526020600020906005020160009150905080600001549080600101805461089690612111565b80601f01602080910402602001604051908101604052809291908181526020018280546108c290612111565b801561090f5780601f106108e45761010080835404028352916020019161090f565b820191906000526020600020905b8154815290600101906020018083116108f257829003601f168201915b50505050509080600201805461092490612111565b80601f016020809104026020016040519081016040528092919081815260200182805461095090612111565b801561099d5780601f106109725761010080835404028352916020019161099d565b820191906000526020600020905b81548152906001019060200180831161098057829003601f168201915b5050505050908060030180546109b290612111565b80601f01602080910402602001604051908101604052809291908181526020018280546109de90612111565b8015610a2b5780601f10610a0057610100808354040283529160200191610a2b565b820191906000526020600020905b815481529060010190602001808311610a0e57829003601f168201915b505050505090806004018054610a4090612111565b80601f0160208091040260200160405190810160405280929190818152602001828054610a6c90612111565b8015610ab95780601f10610a8e57610100808354040283529160200191610ab9565b820191906000526020600020905b815481529060010190602001808311610a9c57829003601f168201915b5050505050905085565b600460009054906101000a900473ffffffffffffffffffffffffffffffffffffffff1673ffffffffffffffffffffffffffffffffffffffff163373ffffffffffffffffffffffffffffffffffffffff1614610b53576040517f08c379a0000000000000000000000000000000000000000000000000000000008152600401610b4a90611d92565b60405180910390fd5b60011515600560149054906101000a900460ff16151514610ba9576040517f08c379a0000000000000000000000000000000000000000000000000000000008152600401610ba090611d52565b60405180910390fd5b600460009054906101000a900473ffffffffffffffffffffffffffffffffffffffff1673ffffffffffffffffffffffffffffffffffffffff166108fc479081150290604051600060405180830381858888f19350505050158015610c11573d6000803e3d6000fd5b50565b600560009054906101000a900473ffffffffffffffffffffffffffffffffffffffff1681565b600460009054906101000a900473ffffffffffffffffffffffffffffffffffffffff1681565b60025481565b600560009054906101000a900473ffffffffffffffffffffffffffffffffffffffff1673ffffffffffffffffffffffffffffffffffffffff163373ffffffffffffffffffffffffffffffffffffffff1614610cf6576040517f08c379a0000000000000000000000000000000000000000000000000000000008152600401610ced90611db2565b60405180910390fd5b60026000541415610d3c576040517f08c379a0000000000000000000000000000000000000000000000000000000008152600401610d3390611dd2565b60405180910390fd5b6002600081905550600060078281548110610d80577f4e487b7100000000000000000000000000000000000000000000000000000000600052603260045260246000fd5b906000526020600020906004020190508060030154421015610da157600080fd5b600560009054906101000a900473ffffffffffffffffffffffffffffffffffffffff1673ffffffffffffffffffffffffffffffffffffffff166108fc82600101549081150290604051600060405180830381858888f19350505050158015610e0d573d6000803e3d6000fd5b508060010154816001016000828254610e269190612017565b925050819055506001600560146101000a81548160ff02191690831515021790555050600160008190555050565b81600460006101000a81548173ffffffffffffffffffffffffffffffffffffffff021916908373ffffffffffffffffffffffffffffffffffffffff16021790555080600560006101000a81548173ffffffffffffffffffffffffffffffffffffffff021916908373ffffffffffffffffffffffffffffffffffffffff1602179055507f0ef5764710977616a7004858b27daaf4dff069d89a97f4b14461cc18ef7a1b3c8282604051610f07929190611cc5565b60405180910390a15050565b60078181548110610f2357600080fd5b90600052602060002090600402016000915090508060000154908060010154908060020154908060030154905084565b60035481565b60606007805480602002602001604051908101604052809291908181526020016000905b82821015610fd7578382906000526020600020906004020160405180608001604052908160008201548152602001600182015481526020016002820154815260200160038201548152505081526020019060010190610f7d565b50505050905090565b60006007828154811061101c577f4e487b7100000000000000000000000000000000000000000000000000000000600052603260045260246000fd5b906000526020600020906004020190508060010154471015611073576040517f08c379a000000000000000000000000000000000000000000000000000000000815260040161106a90611d32565b60405180910390fd5b60008160020154116110ba576040517f08c379a00000000000000000000000000000000000000000000000000000000081526004016110b190611d72565b60405180910390fd5b600560009054906101000a900473ffffffffffffffffffffffffffffffffffffffff1673ffffffffffffffffffffffffffffffffffffffff166108fc82600201549081150290604051600060405180830381858888f19350505050158015611126573d6000803e3d6000fd5b50806002015481600101600082825461113f9190612017565b92505081905550806002015481600201600082825461115e9190612017565b925050819055505050565b600460009054906101000a900473ffffffffffffffffffffffffffffffffffffffff1673ffffffffffffffffffffffffffffffffffffffff163373ffffffffffffffffffffffffffffffffffffffff16146111f9576040517f08c379a00000000000000000000000000000000000000000000000000000000081526004016111f090611d92565b60405180910390fd5b34600660003373ffffffffffffffffffffffffffffffffffffffff1673ffffffffffffffffffffffffffffffffffffffff16815260200190815260200160002060008282546112489190611fc1565b92505081905550565b60066020528060005260406000206000915090505481565b600760405180608001604052806003548152602001858152602001848152602001838152509080600181540180825580915050600190039060005260206000209060040201600090919091909150600082015181600001556020820151816001015560408201518160020155606082015181600301555050600360008154809291906112f490612143565b9190505550505050565b60008060008060005b6007805490508110156114b857856007828154811061134f577f4e487b7100000000000000000000000000000000000000000000000000000000600052603260045260246000fd5b90600052602060002090600402016000015414156114a557600781815481106113a1577f4e487b7100000000000000000000000000000000000000000000000000000000600052603260045260246000fd5b906000526020600020906004020160000154600782815481106113ed577f4e487b7100000000000000000000000000000000000000000000000000000000600052603260045260246000fd5b90600052602060002090600402016001015460078381548110611439577f4e487b7100000000000000000000000000000000000000000000000000000000600052603260045260246000fd5b90600052602060002090600402016002015460078481548110611485577f4e487b7100000000000000000000000000000000000000000000000000000000600052603260045260246000fd5b9060005260206000209060040201600301549450945094509450506114ba565b80806114b090612143565b915050611307565b505b9193509193565b60016040518060a00160405280600254815260200186815260200185815260200184815260200183815250908060018154018082558091505060019003906000526020600020906005020160009091909190915060008201518160000155602082015181600101908051906020019061153b9291906115b3565b5060408201518160020190805190602001906115589291906115b3565b5060608201518160030190805190602001906115759291906115b3565b5060808201518160040190805190602001906115929291906115b3565b505050600260008154809291906115a890612143565b919050555050505050565b8280546115bf90612111565b90600052602060002090601f0160209004810192826115e15760008555611628565b82601f106115fa57805160ff1916838001178555611628565b82800160010185558215611628579182015b8281111561162757825182559160200191906001019061160c565b5b5090506116359190611639565b5090565b5b8082111561165257600081600090555060010161163a565b5090565b600061166961166484611ef2565b611ec1565b90508281526020810184848401111561168157600080fd5b61168c8482856120cf565b509392505050565b6000813590506116a38161222a565b92915050565b6000813590506116b881612241565b92915050565b600082601f8301126116cf57600080fd5b81356116df848260208601611656565b91505092915050565b6000813590506116f781612258565b92915050565b60006020828403121561170f57600080fd5b600061171d84828501611694565b91505092915050565b6000806040838503121561173957600080fd5b6000611747858286016116a9565b9250506020611758858286016116a9565b9150509250929050565b6000806000806080858703121561177857600080fd5b600085013567ffffffffffffffff81111561179257600080fd5b61179e878288016116be565b945050602085013567ffffffffffffffff8111156117bb57600080fd5b6117c7878288016116be565b935050604085013567ffffffffffffffff8111156117e457600080fd5b6117f0878288016116be565b925050606085013567ffffffffffffffff81111561180d57600080fd5b611819878288016116be565b91505092959194509250565b60006020828403121561183757600080fd5b6000611845848285016116e8565b91505092915050565b60008060006060848603121561186357600080fd5b6000611871868287016116e8565b9350506020611882868287016116e8565b9250506040611893868287016116e8565b9150509250925092565b60006118a98383611bac565b60808301905092915050565b60006118c18383611c01565b905092915050565b6118d281612099565b82525050565b6118e18161205d565b82525050565b60006118f282611f42565b6118fc8185611f7d565b935061190783611f22565b8060005b8381101561193857815161191f888261189d565b975061192a83611f63565b92505060018101905061190b565b5085935050505092915050565b600061195082611f4d565b61195a8185611f8e565b93508360208202850161196c85611f32565b8060005b858110156119a8578484038952815161198985826118b5565b945061199483611f70565b925060208a01995050600181019050611970565b50829750879550505050505092915050565b60006119c582611f58565b6119cf8185611f9f565b93506119df8185602086016120de565b6119e881612219565b840191505092915050565b60006119fe82611f58565b611a088185611fb0565b9350611a188185602086016120de565b611a2181612219565b840191505092915050565b6000611a39601083611fb0565b91507f4e6f7420656e6f756768206d6f6e6579000000000000000000000000000000006000830152602082019050919050565b6000611a79601983611fb0565b91507f596f75206d75737420636f6d706c657465207061796d656e74000000000000006000830152602082019050919050565b6000611ab9600c83611fb0565b91507f616c72656164792073656e7400000000000000000000000000000000000000006000830152602082019050919050565b6000611af9600f83611fb0565b91507f4f6e6c79205075726368617365722100000000000000000000000000000000006000830152602082019050919050565b6000611b39600c83611fb0565b91507f4f6e6c79204172746973742100000000000000000000000000000000000000006000830152602082019050919050565b6000611b79601f83611fb0565b91507f5265656e7472616e637947756172643a207265656e7472616e742063616c6c006000830152602082019050919050565b608082016000820151611bc26000850182611c8c565b506020820151611bd56020850182611c8c565b506040820151611be86040850182611c8c565b506060820151611bfb6060850182611c8c565b50505050565b600060a083016000830151611c196000860182611c8c565b5060208301518482036020860152611c3182826119ba565b91505060408301518482036040860152611c4b82826119ba565b91505060608301518482036060860152611c6582826119ba565b91505060808301518482036080860152611c7f82826119ba565b9150508091505092915050565b611c958161208f565b82525050565b611ca48161208f565b82525050565b6000602082019050611cbf60008301846118d8565b92915050565b6000604082019050611cda60008301856118c9565b611ce760208301846118c9565b9392505050565b60006020820190508181036000830152611d0881846118e7565b905092915050565b60006020820190508181036000830152611d2a8184611945565b905092915050565b60006020820190508181036000830152611d4b81611a2c565b9050919050565b60006020820190508181036000830152611d6b81611a6c565b9050919050565b60006020820190508181036000830152611d8b81611aac565b9050919050565b60006020820190508181036000830152611dab81611aec565b9050919050565b60006020820190508181036000830152611dcb81611b2c565b9050919050565b60006020820190508181036000830152611deb81611b6c565b9050919050565b6000602082019050611e076000830184611c9b565b92915050565b600060a082019050611e226000830188611c9b565b8181036020830152611e3481876119f3565b90508181036040830152611e4881866119f3565b90508181036060830152611e5c81856119f3565b90508181036080830152611e7081846119f3565b90509695505050505050565b6000608082019050611e916000830187611c9b565b611e9e6020830186611c9b565b611eab6040830185611c9b565b611eb86060830184611c9b565b95945050505050565b6000604051905081810181811067ffffffffffffffff82111715611ee857611ee76121ea565b5b8060405250919050565b600067ffffffffffffffff821115611f0d57611f0c6121ea565b5b601f19601f8301169050602081019050919050565b6000819050602082019050919050565b6000819050602082019050919050565b600081519050919050565b600081519050919050565b600081519050919050565b6000602082019050919050565b6000602082019050919050565b600082825260208201905092915050565b600082825260208201905092915050565b600082825260208201905092915050565b600082825260208201905092915050565b6000611fcc8261208f565b9150611fd78361208f565b9250827fffffffffffffffffffffffffffffffffffffffffffffffffffffffffffffffff0382111561200c5761200b61218c565b5b828201905092915050565b60006120228261208f565b915061202d8361208f565b9250828210156120405761203f61218c565b5b828203905092915050565b60006120568261206f565b9050919050565b60006120688261206f565b9050919050565b600073ffffffffffffffffffffffffffffffffffffffff82169050919050565b6000819050919050565b60006120a4826120ab565b9050919050565b60006120b6826120bd565b9050919050565b60006120c88261206f565b9050919050565b82818337600083830152505050565b60005b838110156120fc5780820151818401526020810190506120e1565b8381111561210b576000848401525b50505050565b6000600282049050600182168061212957607f821691505b6020821081141561213d5761213c6121bb565b5b50919050565b600061214e8261208f565b91507fffffffffffffffffffffffffffffffffffffffffffffffffffffffffffffffff8214156121815761218061218c565b5b600182019050919050565b7f4e487b7100000000000000000000000000000000000000000000000000000000600052601160045260246000fd5b7f4e487b7100000000000000000000000000000000000000000000000000000000600052602260045260246000fd5b7f4e487b7100000000000000000000000000000000000000000000000000000000600052604160045260246000fd5b6000601f19601f8301169050919050565b6122338161204b565b811461223e57600080fd5b50565b61224a8161205d565b811461225557600080fd5b50565b6122618161208f565b811461226c57600080fd5b5056fea2646970667358221220b4e44a1a1135622f4e7f686c0bbafb28dbbec0210c60368a3d69ecb3ec0f617664736f6c63430008000033",
  "immutableReferences": {},
  "source": "// SPDX-License-Identifier: UNLICENSED\n\npragma solidity 0.8.0;\nimport \"@openzeppelin/contracts/security/ReentrancyGuard.sol\";\n\n\ncontract Concert is ReentrancyGuard {\n    struct Show {\n    uint id;\n    string date;\n    string billing;\n    string city;\n    string venue;\n\n  }\n\n  Show[] public shows;\n  \n  struct Offer {\n    uint id;\n    uint guarantee;\n    uint deposit;\n    uint dueDate;\n   \n  }\n\n    uint public nextId;\n    uint public nextEventId;\n  \n  address payable public purchaser;\n  address payable public artist;\n  // bool public confirmedShow;\n  bool finalpayment;\n  \n  mapping(address => uint) public balanceReceived;\n  \n  // events\n  event PartiesCreated(address purchaser, address artist);\n  event EventCreated(uint id, string date, string billing, string city, string venue);\n  event OfferCreated(uint id, uint guarantee, uint deposit, uint dueDate);\n  event OfferApproved(uint guarantee, uint deposit, uint dueDate);\n  event ShowSettled(uint guarantee, uint deposit, uint dueDate);\n  \n  \n  Offer[] public offers;\n  \n   modifier onlyPurchaser() {\n        require(msg.sender == purchaser, \"Only Purchaser!\");\n    _;\n    }\n    \n       modifier onlyArtist() {\n        require(msg.sender == artist, \"Only Artist!\");\n    _;\n    }\n    \n    function createEvent(\n        string memory date, string memory billing, string memory city, string memory venue) public {\n        shows.push(Show(nextId, date, billing, city, venue));\n        nextId++;\n        // emit(nextId, date, billing, city, venue);\n    }\n    \n    function readEvent() public view returns (Show[] memory) {\n        return shows;\n    }\n    \n      function createOffer(uint guarantee, uint deposit, uint dueDate) public {\n        offers.push(Offer(nextEventId, guarantee, deposit, dueDate));\n        nextEventId++;\n        // emit OfferCreated(nextEventId, guarantee, deposit, dueDate);\n    }\n  \n  function createParties(address payable _purchaser, address payable _artist) public {\n      purchaser = _purchaser;\n      artist = _artist;\n      \n      emit PartiesCreated(_purchaser, _artist);\n    \n  }\n  \n    function getAllOffers() public view returns (Offer[] memory) {\n        return offers;\n    }\n\n        function getSingleOffer(uint id) view public returns(uint, uint, uint, uint) {\n        for(uint i = 0; i < offers.length; i++) {\n            if(offers[i].id == id) {\n             return(offers[i].id, offers[i].guarantee, offers[i].deposit, offers[i].dueDate); \n                    \n                }\n            }\n        }\n  \n  \n  function approveOffer(uint _index) public  {\n      Offer storage offer = offers[_index];\n      require(address(this).balance >= offer.guarantee, 'Not enough money');\n\n    require(offer.deposit > 0, 'already sent');\n    artist.transfer(offer.deposit);\n        \n    // require(success, \"Transfer failed.\");\n    offer.guarantee -= offer.deposit;\n    offer.deposit -= offer.deposit;\n    \n\n     \n    // emit OfferApproved(offer.guarantee, offer.deposit, offer.dueDate);\n \n  }\n  \n  function receiveFullGuarantee(uint _index) public onlyArtist nonReentrant() {\n      Offer storage offer = offers[_index];\n      require(block.timestamp >= offer.dueDate);\n      artist.transfer(offer.guarantee);\n        // require(success, \"Transfer failed.\");\n        offer.guarantee -= offer.guarantee;\n        finalpayment = true;\n\n        // emit ShowSettled(offer.guarantee, offer.deposit, offer.confirmed, offer.depositPaid, offer.dueDate, offer.guaranteePaid);\n      \n  }\n  \n      function getBalance() public view returns(uint) {\n        return address(this).balance;\n    }\n    \n        function sendMoney() public payable onlyPurchaser {\n        balanceReceived[msg.sender] += msg.value;\n        \n    }\n    \n    function cancelShow(uint _index) public onlyPurchaser {\n        Offer storage offer = offers[_index];\n        // offer.confirmed = false;\n        purchaser.transfer(address(this).balance);\n        \n    }\n    \n    function withdraw() public onlyPurchaser {\n        require(finalpayment == true, \"You must complete payment\");\n        purchaser.transfer(address(this).balance);\n\n    }\n\n  \n}",
  "sourcePath": "/Users/jonprine/Desktop/ethereum/consensys/blockchain-developer-bootcamp-final-project/contracts/Concert.sol",
  "compiler": {
    "name": "solc",
    "version": "0.8.0+commit.c7dfd78e.Emscripten.clang"
  },
  "schemaVersion": "3.3.4",
  "updatedAt": "2021-11-23T16:05:37.989Z",
  "networkType": "ethereum",
  "devdoc": {
    "kind": "dev",
    "methods": {},
    "version": 1
  },
  "userdoc": {
    "kind": "user",
    "methods": {},
    "version": 1
  }
}