{
  "contractName": "Concert",
  "abi": [
    {
      "anonymous": false,
      "inputs": [
        {
          "indexed": false,
          "internalType": "uint256",
          "name": "id",
          "type": "uint256"
        },
        {
          "indexed": false,
          "internalType": "string",
          "name": "date",
          "type": "string"
        },
        {
          "indexed": false,
          "internalType": "string",
          "name": "billing",
          "type": "string"
        },
        {
          "indexed": false,
          "internalType": "string",
          "name": "city",
          "type": "string"
        },
        {
          "indexed": false,
          "internalType": "string",
          "name": "venue",
          "type": "string"
        }
      ],
      "name": "EventCreated",
      "type": "event"
    },
    {
      "anonymous": false,
      "inputs": [
        {
          "indexed": false,
          "internalType": "uint256",
          "name": "guarantee",
          "type": "uint256"
        },
        {
          "indexed": false,
          "internalType": "uint256",
          "name": "deposit",
          "type": "uint256"
        },
        {
          "indexed": false,
          "internalType": "uint256",
          "name": "dueDate",
          "type": "uint256"
        }
      ],
      "name": "OfferApproved",
      "type": "event"
    },
    {
      "anonymous": false,
      "inputs": [
        {
          "indexed": false,
          "internalType": "uint256",
          "name": "id",
          "type": "uint256"
        },
        {
          "indexed": false,
          "internalType": "uint256",
          "name": "guarantee",
          "type": "uint256"
        },
        {
          "indexed": false,
          "internalType": "uint256",
          "name": "deposit",
          "type": "uint256"
        },
        {
          "indexed": false,
          "internalType": "uint256",
          "name": "dueDate",
          "type": "uint256"
        }
      ],
      "name": "OfferCreated",
      "type": "event"
    },
    {
      "anonymous": false,
      "inputs": [
        {
          "indexed": true,
          "internalType": "address",
          "name": "previousOwner",
          "type": "address"
        },
        {
          "indexed": true,
          "internalType": "address",
          "name": "newOwner",
          "type": "address"
        }
      ],
      "name": "OwnershipTransferred",
      "type": "event"
    },
    {
      "anonymous": false,
      "inputs": [
        {
          "indexed": false,
          "internalType": "address",
          "name": "purchaser",
          "type": "address"
        },
        {
          "indexed": false,
          "internalType": "address",
          "name": "artist",
          "type": "address"
        }
      ],
      "name": "PartiesCreated",
      "type": "event"
    },
    {
      "anonymous": false,
      "inputs": [
        {
          "indexed": false,
          "internalType": "uint256",
          "name": "guarantee",
          "type": "uint256"
        },
        {
          "indexed": false,
          "internalType": "uint256",
          "name": "deposit",
          "type": "uint256"
        },
        {
          "indexed": false,
          "internalType": "uint256",
          "name": "dueDate",
          "type": "uint256"
        }
      ],
      "name": "ShowSettled",
      "type": "event"
    },
    {
      "inputs": [],
      "name": "artist",
      "outputs": [
        {
          "internalType": "address payable",
          "name": "",
          "type": "address"
        }
      ],
      "stateMutability": "view",
      "type": "function",
      "constant": true
    },
    {
      "inputs": [
        {
          "internalType": "address",
          "name": "",
          "type": "address"
        }
      ],
      "name": "balanceReceived",
      "outputs": [
        {
          "internalType": "uint256",
          "name": "",
          "type": "uint256"
        }
      ],
      "stateMutability": "view",
      "type": "function",
      "constant": true
    },
    {
      "inputs": [],
      "name": "nextEventId",
      "outputs": [
        {
          "internalType": "uint256",
          "name": "",
          "type": "uint256"
        }
      ],
      "stateMutability": "view",
      "type": "function",
      "constant": true
    },
    {
      "inputs": [],
      "name": "nextId",
      "outputs": [
        {
          "internalType": "uint256",
          "name": "",
          "type": "uint256"
        }
      ],
      "stateMutability": "view",
      "type": "function",
      "constant": true
    },
    {
      "inputs": [
        {
          "internalType": "uint256",
          "name": "",
          "type": "uint256"
        }
      ],
      "name": "offers",
      "outputs": [
        {
          "internalType": "uint256",
          "name": "id",
          "type": "uint256"
        },
        {
          "internalType": "uint256",
          "name": "guarantee",
          "type": "uint256"
        },
        {
          "internalType": "uint256",
          "name": "deposit",
          "type": "uint256"
        },
        {
          "internalType": "uint256",
          "name": "dueDate",
          "type": "uint256"
        }
      ],
      "stateMutability": "view",
      "type": "function",
      "constant": true
    },
    {
      "inputs": [],
      "name": "owner",
      "outputs": [
        {
          "internalType": "address",
          "name": "",
          "type": "address"
        }
      ],
      "stateMutability": "view",
      "type": "function",
      "constant": true
    },
    {
      "inputs": [],
      "name": "purchaser",
      "outputs": [
        {
          "internalType": "address payable",
          "name": "",
          "type": "address"
        }
      ],
      "stateMutability": "view",
      "type": "function",
      "constant": true
    },
    {
      "inputs": [],
      "name": "renounceOwnership",
      "outputs": [],
      "stateMutability": "nonpayable",
      "type": "function"
    },
    {
      "inputs": [
        {
          "internalType": "uint256",
          "name": "",
          "type": "uint256"
        }
      ],
      "name": "shows",
      "outputs": [
        {
          "internalType": "uint256",
          "name": "id",
          "type": "uint256"
        },
        {
          "internalType": "string",
          "name": "date",
          "type": "string"
        },
        {
          "internalType": "string",
          "name": "billing",
          "type": "string"
        },
        {
          "internalType": "string",
          "name": "city",
          "type": "string"
        },
        {
          "internalType": "string",
          "name": "venue",
          "type": "string"
        }
      ],
      "stateMutability": "view",
      "type": "function",
      "constant": true
    },
    {
      "inputs": [
        {
          "internalType": "address",
          "name": "newOwner",
          "type": "address"
        }
      ],
      "name": "transferOwnership",
      "outputs": [],
      "stateMutability": "nonpayable",
      "type": "function"
    },
    {
      "inputs": [
        {
          "internalType": "string",
          "name": "date",
          "type": "string"
        },
        {
          "internalType": "string",
          "name": "billing",
          "type": "string"
        },
        {
          "internalType": "string",
          "name": "city",
          "type": "string"
        },
        {
          "internalType": "string",
          "name": "venue",
          "type": "string"
        }
      ],
      "name": "createEvent",
      "outputs": [],
      "stateMutability": "nonpayable",
      "type": "function"
    },
    {
      "inputs": [],
      "name": "readEvent",
      "outputs": [
        {
          "components": [
            {
              "internalType": "uint256",
              "name": "id",
              "type": "uint256"
            },
            {
              "internalType": "string",
              "name": "date",
              "type": "string"
            },
            {
              "internalType": "string",
              "name": "billing",
              "type": "string"
            },
            {
              "internalType": "string",
              "name": "city",
              "type": "string"
            },
            {
              "internalType": "string",
              "name": "venue",
              "type": "string"
            }
          ],
          "internalType": "struct Concert.Show[]",
          "name": "",
          "type": "tuple[]"
        }
      ],
      "stateMutability": "view",
      "type": "function",
      "constant": true
    },
    {
      "inputs": [
        {
          "internalType": "uint256",
          "name": "guarantee",
          "type": "uint256"
        },
        {
          "internalType": "uint256",
          "name": "deposit",
          "type": "uint256"
        },
        {
          "internalType": "uint256",
          "name": "dueDate",
          "type": "uint256"
        }
      ],
      "name": "createOffer",
      "outputs": [],
      "stateMutability": "nonpayable",
      "type": "function"
    },
    {
      "inputs": [
        {
          "internalType": "address payable",
          "name": "_purchaser",
          "type": "address"
        },
        {
          "internalType": "address payable",
          "name": "_artist",
          "type": "address"
        }
      ],
      "name": "createParties",
      "outputs": [],
      "stateMutability": "nonpayable",
      "type": "function"
    },
    {
      "inputs": [],
      "name": "getAllOffers",
      "outputs": [
        {
          "components": [
            {
              "internalType": "uint256",
              "name": "id",
              "type": "uint256"
            },
            {
              "internalType": "uint256",
              "name": "guarantee",
              "type": "uint256"
            },
            {
              "internalType": "uint256",
              "name": "deposit",
              "type": "uint256"
            },
            {
              "internalType": "uint256",
              "name": "dueDate",
              "type": "uint256"
            }
          ],
          "internalType": "struct Concert.Offer[]",
          "name": "",
          "type": "tuple[]"
        }
      ],
      "stateMutability": "view",
      "type": "function",
      "constant": true
    },
    {
      "inputs": [
        {
          "internalType": "uint256",
          "name": "_index",
          "type": "uint256"
        }
      ],
      "name": "approveOffer",
      "outputs": [],
      "stateMutability": "nonpayable",
      "type": "function"
    },
    {
      "inputs": [
        {
          "internalType": "uint256",
          "name": "_index",
          "type": "uint256"
        }
      ],
      "name": "receiveFullGuarantee",
      "outputs": [],
      "stateMutability": "nonpayable",
      "type": "function"
    },
    {
      "inputs": [],
      "name": "getBalance",
      "outputs": [
        {
          "internalType": "uint256",
          "name": "",
          "type": "uint256"
        }
      ],
      "stateMutability": "view",
      "type": "function",
      "constant": true
    },
    {
      "inputs": [],
      "name": "sendMoney",
      "outputs": [],
      "stateMutability": "payable",
      "type": "function",
      "payable": true
    },
    {
      "inputs": [],
      "name": "withdraw",
      "outputs": [],
      "stateMutability": "nonpayable",
      "type": "function"
    },
    {
      "inputs": [
        {
          "internalType": "uint256",
          "name": "_index",
          "type": "uint256"
        }
      ],
      "name": "cancelShow",
      "outputs": [],
      "stateMutability": "nonpayable",
      "type": "function"
    }
  ],
  "bytecode": "0x60806040523480156200001157600080fd5b5062000032620000266200003f60201b60201c565b6200004760201b60201c565b600180819055506200010b565b600033905090565b60008060009054906101000a900473ffffffffffffffffffffffffffffffffffffffff169050816000806101000a81548173ffffffffffffffffffffffffffffffffffffffff021916908373ffffffffffffffffffffffffffffffffffffffff1602179055508173ffffffffffffffffffffffffffffffffffffffff168173ffffffffffffffffffffffffffffffffffffffff167f8be0079c531659141344cd1fd0a4f28419497f9722a3daafe3b4186f6b6457e060405160405180910390a35050565b6128a6806200011b6000396000f3fe60806040526004361061012a5760003560e01c806387493e10116100ab578063a5d7c10a1161006f578063a5d7c10a146103b1578063cbedbf5a146103da578063d18a42e1146103e4578063dc35a90014610421578063f2fde38b1461044a578063fa3a7271146104735761012a565b806387493e10146102c75780638a72ea6a146102f05780638da5cb5b146103305780639f9d903a1461035b578063a1655278146103865761012a565b806343bc1612116100f257806343bc1612146102065780635a77dc461461023157806361b8ce8c1461025c5780636ba9bc4114610287578063715018a6146102b05761012a565b806305aea97c1461012f57806312065fe01461015a5780632d587af61461018557806330f0931e146101ae5780633ccfd60b146101ef575b600080fd5b34801561013b57600080fd5b5061014461049c565b604051610151919061227a565b60405180910390f35b34801561016657600080fd5b5061016f61074d565b60405161017c91906123bc565b60405180910390f35b34801561019157600080fd5b506101ac60048036038101906101a79190611c59565b610755565b005b3480156101ba57600080fd5b506101d560048036038101906101d09190611c59565b61088a565b6040516101e69594939291906123d7565b60405180910390f35b3480156101fb57600080fd5b50610204610af0565b005b34801561021257600080fd5b5061021b610c41565b6040516102289190612214565b60405180910390f35b34801561023d57600080fd5b50610246610c67565b6040516102539190612214565b60405180910390f35b34801561026857600080fd5b50610271610c8d565b60405161027e91906123bc565b60405180910390f35b34801561029357600080fd5b506102ae60048036038101906102a99190611c59565b610c93565b005b3480156102bc57600080fd5b506102c5610ec7565b005b3480156102d357600080fd5b506102ee60048036038101906102e99190611b5a565b610f4f565b005b3480156102fc57600080fd5b5061031760048036038101906103129190611c59565b61100e565b604051610327949392919061247d565b60405180910390f35b34801561033c57600080fd5b5061034561104e565b60405161035291906121f9565b60405180910390f35b34801561036757600080fd5b50610370611077565b60405161037d91906123bc565b60405180910390f35b34801561039257600080fd5b5061039b61107d565b6040516103a89190612258565b60405180910390f35b3480156103bd57600080fd5b506103d860048036038101906103d39190611c59565b611104565b005b6103e26113b9565b005b3480156103f057600080fd5b5061040b60048036038101906104069190611b31565b6114a1565b60405161041891906123bc565b60405180910390f35b34801561042d57600080fd5b5061044860048036038101906104439190611c82565b6114b9565b005b34801561045657600080fd5b50610471600480360381019061046c9190611b31565b611660565b005b34801561047f57600080fd5b5061049a60048036038101906104959190611b96565b611758565b005b60606002805480602002602001604051908101604052809291908181526020016000905b8282101561074457838290600052602060002090600502016040518060a0016040529081600082015481526020016001820180546104fd90612712565b80601f016020809104026020016040519081016040528092919081815260200182805461052990612712565b80156105765780601f1061054b57610100808354040283529160200191610576565b820191906000526020600020905b81548152906001019060200180831161055957829003601f168201915b5050505050815260200160028201805461058f90612712565b80601f01602080910402602001604051908101604052809291908181526020018280546105bb90612712565b80156106085780601f106105dd57610100808354040283529160200191610608565b820191906000526020600020905b8154815290600101906020018083116105eb57829003601f168201915b5050505050815260200160038201805461062190612712565b80601f016020809104026020016040519081016040528092919081815260200182805461064d90612712565b801561069a5780601f1061066f5761010080835404028352916020019161069a565b820191906000526020600020905b81548152906001019060200180831161067d57829003601f168201915b505050505081526020016004820180546106b390612712565b80601f01602080910402602001604051908101604052809291908181526020018280546106df90612712565b801561072c5780601f106107015761010080835404028352916020019161072c565b820191906000526020600020905b81548152906001019060200180831161070f57829003601f168201915b505050505081525050815260200190600101906104c0565b50505050905090565b600047905090565b61075d61191b565b73ffffffffffffffffffffffffffffffffffffffff1661077b61104e565b73ffffffffffffffffffffffffffffffffffffffff16146107d1576040517f08c379a00000000000000000000000000000000000000000000000000000000081526004016107c89061235c565b60405180910390fd5b60006008828154811061080d577f4e487b7100000000000000000000000000000000000000000000000000000000600052603260045260246000fd5b90600052602060002090600402019050600560009054906101000a900473ffffffffffffffffffffffffffffffffffffffff1673ffffffffffffffffffffffffffffffffffffffff166108fc479081150290604051600060405180830381858888f19350505050158015610885573d6000803e3d6000fd5b505050565b6002818154811061089a57600080fd5b90600052602060002090600502016000915090508060000154908060010180546108c390612712565b80601f01602080910402602001604051908101604052809291908181526020018280546108ef90612712565b801561093c5780601f106109115761010080835404028352916020019161093c565b820191906000526020600020905b81548152906001019060200180831161091f57829003601f168201915b50505050509080600201805461095190612712565b80601f016020809104026020016040519081016040528092919081815260200182805461097d90612712565b80156109ca5780601f1061099f576101008083540402835291602001916109ca565b820191906000526020600020905b8154815290600101906020018083116109ad57829003601f168201915b5050505050908060030180546109df90612712565b80601f0160208091040260200160405190810160405280929190818152602001828054610a0b90612712565b8015610a585780601f10610a2d57610100808354040283529160200191610a58565b820191906000526020600020905b815481529060010190602001808311610a3b57829003601f168201915b505050505090806004018054610a6d90612712565b80601f0160208091040260200160405190810160405280929190818152602001828054610a9990612712565b8015610ae65780601f10610abb57610100808354040283529160200191610ae6565b820191906000526020600020905b815481529060010190602001808311610ac957829003601f168201915b5050505050905085565b600560009054906101000a900473ffffffffffffffffffffffffffffffffffffffff1673ffffffffffffffffffffffffffffffffffffffff163373ffffffffffffffffffffffffffffffffffffffff1614610b80576040517f08c379a0000000000000000000000000000000000000000000000000000000008152600401610b779061231c565b60405180910390fd5b60011515600660149054906101000a900460ff16151514610bd6576040517f08c379a0000000000000000000000000000000000000000000000000000000008152600401610bcd906122dc565b60405180910390fd5b600560009054906101000a900473ffffffffffffffffffffffffffffffffffffffff1673ffffffffffffffffffffffffffffffffffffffff166108fc479081150290604051600060405180830381858888f19350505050158015610c3e573d6000803e3d6000fd5b50565b600660009054906101000a900473ffffffffffffffffffffffffffffffffffffffff1681565b600560009054906101000a900473ffffffffffffffffffffffffffffffffffffffff1681565b60035481565b600660009054906101000a900473ffffffffffffffffffffffffffffffffffffffff1673ffffffffffffffffffffffffffffffffffffffff163373ffffffffffffffffffffffffffffffffffffffff1614610d23576040517f08c379a0000000000000000000000000000000000000000000000000000000008152600401610d1a9061233c565b60405180910390fd5b60026001541415610d69576040517f08c379a0000000000000000000000000000000000000000000000000000000008152600401610d609061239c565b60405180910390fd5b6002600181905550600060088281548110610dad577f4e487b7100000000000000000000000000000000000000000000000000000000600052603260045260246000fd5b906000526020600020906004020190508060030154421015610dce57600080fd5b600660009054906101000a900473ffffffffffffffffffffffffffffffffffffffff1673ffffffffffffffffffffffffffffffffffffffff166108fc82600101549081150290604051600060405180830381858888f19350505050158015610e3a573d6000803e3d6000fd5b508060010154816001016000828254610e539190612618565b925050819055506001600660146101000a81548160ff0219169083151502179055507f4dca92ada305267e7c2c9d4948f1f31370613e03341727bd8cbd355c729b67e7816001015482600201548360030154604051610eb493929190612446565b60405180910390a1506001808190555050565b610ecf61191b565b73ffffffffffffffffffffffffffffffffffffffff16610eed61104e565b73ffffffffffffffffffffffffffffffffffffffff1614610f43576040517f08c379a0000000000000000000000000000000000000000000000000000000008152600401610f3a9061235c565b60405180910390fd5b610f4d6000611923565b565b81600560006101000a81548173ffffffffffffffffffffffffffffffffffffffff021916908373ffffffffffffffffffffffffffffffffffffffff16021790555080600660006101000a81548173ffffffffffffffffffffffffffffffffffffffff021916908373ffffffffffffffffffffffffffffffffffffffff1602179055507f0ef5764710977616a7004858b27daaf4dff069d89a97f4b14461cc18ef7a1b3c828260405161100292919061222f565b60405180910390a15050565b6008818154811061101e57600080fd5b90600052602060002090600402016000915090508060000154908060010154908060020154908060030154905084565b60008060009054906101000a900473ffffffffffffffffffffffffffffffffffffffff16905090565b60045481565b60606008805480602002602001604051908101604052809291908181526020016000905b828210156110fb5783829060005260206000209060040201604051806080016040529081600082015481526020016001820154815260200160028201548152602001600382015481525050815260200190600101906110a1565b50505050905090565b600660009054906101000a900473ffffffffffffffffffffffffffffffffffffffff1673ffffffffffffffffffffffffffffffffffffffff163373ffffffffffffffffffffffffffffffffffffffff1614611194576040517f08c379a000000000000000000000000000000000000000000000000000000000815260040161118b9061233c565b60405180910390fd5b600260015414156111da576040517f08c379a00000000000000000000000000000000000000000000000000000000081526004016111d19061239c565b60405180910390fd5b600260018190555060006008828154811061121e577f4e487b7100000000000000000000000000000000000000000000000000000000600052603260045260246000fd5b906000526020600020906004020190508060010154471015611275576040517f08c379a000000000000000000000000000000000000000000000000000000000815260040161126c9061229c565b60405180910390fd5b60008160020154116112bc576040517f08c379a00000000000000000000000000000000000000000000000000000000081526004016112b3906122fc565b60405180910390fd5b600660009054906101000a900473ffffffffffffffffffffffffffffffffffffffff1673ffffffffffffffffffffffffffffffffffffffff166108fc82600201549081150290604051600060405180830381858888f19350505050158015611328573d6000803e3d6000fd5b5080600201548160010160008282546113419190612618565b9250508190555080600201548160020160008282546113609190612618565b925050819055507fc728fc3512a4e0530edcad460ec15429ef648346dc82ae7b8e18e7d4dca8a9e38160010154826002015483600301546040516113a693929190612446565b60405180910390a1506001808190555050565b600560009054906101000a900473ffffffffffffffffffffffffffffffffffffffff1673ffffffffffffffffffffffffffffffffffffffff163373ffffffffffffffffffffffffffffffffffffffff1614611449576040517f08c379a00000000000000000000000000000000000000000000000000000000081526004016114409061231c565b60405180910390fd5b34600760003373ffffffffffffffffffffffffffffffffffffffff1673ffffffffffffffffffffffffffffffffffffffff168152602001908152602001600020600082825461149891906125c2565b92505081905550565b60076020528060005260406000206000915090505481565b600560009054906101000a900473ffffffffffffffffffffffffffffffffffffffff1673ffffffffffffffffffffffffffffffffffffffff163373ffffffffffffffffffffffffffffffffffffffff1614611549576040517f08c379a00000000000000000000000000000000000000000000000000000000081526004016115409061231c565b60405180910390fd5b8282111561158c576040517f08c379a00000000000000000000000000000000000000000000000000000000081526004016115839061237c565b60405180910390fd5b6008604051806080016040528060045481526020018581526020018481526020018381525090806001815401808255809150506001900390600052602060002090600402016000909190919091506000820151816000015560208201518160010155604082015181600201556060820151816003015550506004600081548092919061161790612744565b91905055507fe051046491452f69b12482db969cb77bd7173aa0071ba153b0699117eca3b34d600454848484604051611653949392919061247d565b60405180910390a1505050565b61166861191b565b73ffffffffffffffffffffffffffffffffffffffff1661168661104e565b73ffffffffffffffffffffffffffffffffffffffff16146116dc576040517f08c379a00000000000000000000000000000000000000000000000000000000081526004016116d39061235c565b60405180910390fd5b600073ffffffffffffffffffffffffffffffffffffffff168173ffffffffffffffffffffffffffffffffffffffff16141561174c576040517f08c379a0000000000000000000000000000000000000000000000000000000008152600401611743906122bc565b60405180910390fd5b61175581611923565b50565b600560009054906101000a900473ffffffffffffffffffffffffffffffffffffffff1673ffffffffffffffffffffffffffffffffffffffff163373ffffffffffffffffffffffffffffffffffffffff16146117e8576040517f08c379a00000000000000000000000000000000000000000000000000000000081526004016117df9061231c565b60405180910390fd5b60026040518060a0016040528060035481526020018681526020018581526020018481526020018381525090806001815401808255809150506001900390600052602060002090600502016000909190919091506000820151816000015560208201518160010190805190602001906118629291906119e7565b50604082015181600201908051906020019061187f9291906119e7565b50606082015181600301908051906020019061189c9291906119e7565b5060808201518160040190805190602001906118b99291906119e7565b505050600360008154809291906118cf90612744565b91905055507fe56179a52a14139cb391691bbf1307a510e3066898c4bd05b601b02938ff1be16003548585858560405161190d9594939291906123d7565b60405180910390a150505050565b600033905090565b60008060009054906101000a900473ffffffffffffffffffffffffffffffffffffffff169050816000806101000a81548173ffffffffffffffffffffffffffffffffffffffff021916908373ffffffffffffffffffffffffffffffffffffffff1602179055508173ffffffffffffffffffffffffffffffffffffffff168173ffffffffffffffffffffffffffffffffffffffff167f8be0079c531659141344cd1fd0a4f28419497f9722a3daafe3b4186f6b6457e060405160405180910390a35050565b8280546119f390612712565b90600052602060002090601f016020900481019282611a155760008555611a5c565b82601f10611a2e57805160ff1916838001178555611a5c565b82800160010185558215611a5c579182015b82811115611a5b578251825591602001919060010190611a40565b5b509050611a699190611a6d565b5090565b5b80821115611a86576000816000905550600101611a6e565b5090565b6000611a9d611a98846124f3565b6124c2565b905082815260208101848484011115611ab557600080fd5b611ac08482856126d0565b509392505050565b600081359050611ad78161282b565b92915050565b600081359050611aec81612842565b92915050565b600082601f830112611b0357600080fd5b8135611b13848260208601611a8a565b91505092915050565b600081359050611b2b81612859565b92915050565b600060208284031215611b4357600080fd5b6000611b5184828501611ac8565b91505092915050565b60008060408385031215611b6d57600080fd5b6000611b7b85828601611add565b9250506020611b8c85828601611add565b9150509250929050565b60008060008060808587031215611bac57600080fd5b600085013567ffffffffffffffff811115611bc657600080fd5b611bd287828801611af2565b945050602085013567ffffffffffffffff811115611bef57600080fd5b611bfb87828801611af2565b935050604085013567ffffffffffffffff811115611c1857600080fd5b611c2487828801611af2565b925050606085013567ffffffffffffffff811115611c4157600080fd5b611c4d87828801611af2565b91505092959194509250565b600060208284031215611c6b57600080fd5b6000611c7984828501611b1c565b91505092915050565b600080600060608486031215611c9757600080fd5b6000611ca586828701611b1c565b9350506020611cb686828701611b1c565b9250506040611cc786828701611b1c565b9150509250925092565b6000611cdd83836120fb565b60808301905092915050565b6000611cf58383612150565b905092915050565b611d068161269a565b82525050565b611d158161265e565b82525050565b611d248161264c565b82525050565b6000611d3582612543565b611d3f818561257e565b9350611d4a83612523565b8060005b83811015611d7b578151611d628882611cd1565b9750611d6d83612564565b925050600181019050611d4e565b5085935050505092915050565b6000611d938261254e565b611d9d818561258f565b935083602082028501611daf85612533565b8060005b85811015611deb5784840389528151611dcc8582611ce9565b9450611dd783612571565b925060208a01995050600181019050611db3565b50829750879550505050505092915050565b6000611e0882612559565b611e1281856125a0565b9350611e228185602086016126df565b611e2b8161281a565b840191505092915050565b6000611e4182612559565b611e4b81856125b1565b9350611e5b8185602086016126df565b611e648161281a565b840191505092915050565b6000611e7c6010836125b1565b91507f4e6f7420656e6f756768206d6f6e6579000000000000000000000000000000006000830152602082019050919050565b6000611ebc6026836125b1565b91507f4f776e61626c653a206e6577206f776e657220697320746865207a65726f206160008301527f64647265737300000000000000000000000000000000000000000000000000006020830152604082019050919050565b6000611f226019836125b1565b91507f596f75206d75737420636f6d706c657465207061796d656e74000000000000006000830152602082019050919050565b6000611f62600c836125b1565b91507f616c72656164792073656e7400000000000000000000000000000000000000006000830152602082019050919050565b6000611fa2600f836125b1565b91507f4f6e6c79205075726368617365722100000000000000000000000000000000006000830152602082019050919050565b6000611fe2600c836125b1565b91507f4f6e6c79204172746973742100000000000000000000000000000000000000006000830152602082019050919050565b60006120226020836125b1565b91507f4f776e61626c653a2063616c6c6572206973206e6f7420746865206f776e65726000830152602082019050919050565b6000612062602b836125b1565b91507f6465706f736974206d757374206265206174206c6561737420657175616c207460008301527f6f2067756172616e7465650000000000000000000000000000000000000000006020830152604082019050919050565b60006120c8601f836125b1565b91507f5265656e7472616e637947756172643a207265656e7472616e742063616c6c006000830152602082019050919050565b60808201600082015161211160008501826121db565b50602082015161212460208501826121db565b50604082015161213760408501826121db565b50606082015161214a60608501826121db565b50505050565b600060a08301600083015161216860008601826121db565b50602083015184820360208601526121808282611dfd565b9150506040830151848203604086015261219a8282611dfd565b915050606083015184820360608601526121b48282611dfd565b915050608083015184820360808601526121ce8282611dfd565b9150508091505092915050565b6121e481612690565b82525050565b6121f381612690565b82525050565b600060208201905061220e6000830184611d1b565b92915050565b60006020820190506122296000830184611d0c565b92915050565b60006040820190506122446000830185611cfd565b6122516020830184611cfd565b9392505050565b600060208201905081810360008301526122728184611d2a565b905092915050565b600060208201905081810360008301526122948184611d88565b905092915050565b600060208201905081810360008301526122b581611e6f565b9050919050565b600060208201905081810360008301526122d581611eaf565b9050919050565b600060208201905081810360008301526122f581611f15565b9050919050565b6000602082019050818103600083015261231581611f55565b9050919050565b6000602082019050818103600083015261233581611f95565b9050919050565b6000602082019050818103600083015261235581611fd5565b9050919050565b6000602082019050818103600083015261237581612015565b9050919050565b6000602082019050818103600083015261239581612055565b9050919050565b600060208201905081810360008301526123b5816120bb565b9050919050565b60006020820190506123d160008301846121ea565b92915050565b600060a0820190506123ec60008301886121ea565b81810360208301526123fe8187611e36565b905081810360408301526124128186611e36565b905081810360608301526124268185611e36565b9050818103608083015261243a8184611e36565b90509695505050505050565b600060608201905061245b60008301866121ea565b61246860208301856121ea565b61247560408301846121ea565b949350505050565b600060808201905061249260008301876121ea565b61249f60208301866121ea565b6124ac60408301856121ea565b6124b960608301846121ea565b95945050505050565b6000604051905081810181811067ffffffffffffffff821117156124e9576124e86127eb565b5b8060405250919050565b600067ffffffffffffffff82111561250e5761250d6127eb565b5b601f19601f8301169050602081019050919050565b6000819050602082019050919050565b6000819050602082019050919050565b600081519050919050565b600081519050919050565b600081519050919050565b6000602082019050919050565b6000602082019050919050565b600082825260208201905092915050565b600082825260208201905092915050565b600082825260208201905092915050565b600082825260208201905092915050565b60006125cd82612690565b91506125d883612690565b9250827fffffffffffffffffffffffffffffffffffffffffffffffffffffffffffffffff0382111561260d5761260c61278d565b5b828201905092915050565b600061262382612690565b915061262e83612690565b9250828210156126415761264061278d565b5b828203905092915050565b600061265782612670565b9050919050565b600061266982612670565b9050919050565b600073ffffffffffffffffffffffffffffffffffffffff82169050919050565b6000819050919050565b60006126a5826126ac565b9050919050565b60006126b7826126be565b9050919050565b60006126c982612670565b9050919050565b82818337600083830152505050565b60005b838110156126fd5780820151818401526020810190506126e2565b8381111561270c576000848401525b50505050565b6000600282049050600182168061272a57607f821691505b6020821081141561273e5761273d6127bc565b5b50919050565b600061274f82612690565b91507fffffffffffffffffffffffffffffffffffffffffffffffffffffffffffffffff8214156127825761278161278d565b5b600182019050919050565b7f4e487b7100000000000000000000000000000000000000000000000000000000600052601160045260246000fd5b7f4e487b7100000000000000000000000000000000000000000000000000000000600052602260045260246000fd5b7f4e487b7100000000000000000000000000000000000000000000000000000000600052604160045260246000fd5b6000601f19601f8301169050919050565b6128348161264c565b811461283f57600080fd5b50565b61284b8161265e565b811461285657600080fd5b50565b61286281612690565b811461286d57600080fd5b5056fea26469706673582212208cd3ec3a9a5da2179e5594ef5886c1274a4003dfed1bbc050f4c93419894a3b364736f6c63430008000033",
  "immutableReferences": {},
  "source": "// SPDX-License-Identifier: MIT\n\npragma solidity 0.8.0;\nimport \"@openzeppelin/contracts/access/Ownable.sol\";\nimport \"@openzeppelin/contracts/security/ReentrancyGuard.sol\";\n\n/// @title dyob - do your own band\n/// @author Jon Prine\n/// @notice A performance agreement between purchaser and artist\ncontract Concert is Ownable, ReentrancyGuard {\n\n/// @notice creates the basic show details\n    struct Show {\n    uint id;\n    string date;\n    string billing;\n    string city;\n    string venue;\n  }\n\n/// @notice creates an array of shows\n/// @dev more useful in a future implmentation when offering multiple dates\n  Show[] public shows;\n  \n/// @notice creates the offer details for the show\n  struct Offer {\n    uint id;\n    uint guarantee;\n    uint deposit;\n    uint dueDate;\n  }\n\n  uint public nextId;\n  uint public nextEventId;\n  \n/// @notice sets accounts to purchaser and artist\n  address payable public purchaser;\n  address payable public artist;\n\n/// @dev this is used to make sure final payment is complete before purchaser can withdraw\n  bool finalpayment;\n\n  mapping(address => uint) public balanceReceived;\n  \n  /// events\n  /// @notice creates the parties in the agreement\n  event PartiesCreated(address purchaser, address artist);\n\n  /// @notice new show has been created\n  event EventCreated(uint id, string date, string billing, string city, string venue);\n\n  /// @notice new offer has been created\n  event OfferCreated(uint id, uint guarantee, uint deposit, uint dueDate);\n\n  /// @notice offer has been approved by the artist\n  event OfferApproved(uint guarantee, uint deposit, uint dueDate);\n\n  /// @notice final settlement when artist receives full guarantee\n  event ShowSettled(uint guarantee, uint deposit, uint dueDate);\n  \n  /// @dev more useful in future implementation when artist can select\n  /// from different offers to a specific show\n  Offer[] public offers;\n  \n   modifier onlyPurchaser() {\n        require(msg.sender == purchaser, \"Only Purchaser!\");\n    _;\n    }\n    \n       modifier onlyArtist() {\n        require(msg.sender == artist, \"Only Artist!\");\n    _;\n    }\n    \n  /// @notice creates a new show\n  /// @param date date in which show will take place\n  /// @param billing how the artist will be billed\n  /// @param city where the show will take place\n  /// @param venue venue where the show will be held\n    function createEvent(\n        string memory date, string memory billing, string memory city, string memory venue) public onlyPurchaser {\n        shows.push(Show(nextId, date, billing, city, venue));\n        nextId++;\n        emit EventCreated(nextId, date, billing, city, venue);\n    }\n    \n    /// @notice returns all the shows that have been created\n    /// @dev will grab the show that was just created. a future implementation to \n    /// do multiple shows\n    function readEvent() public view returns (Show[] memory) {\n        return shows;\n    }\n    \n    /// @notice creates the offer for the show\n    /// @param guarantee the amount in which artist will be paid\n    /// @param deposit the amount the artist will be paid upon confirmation\n    /// @param dueDate date in which final payment is due\n    /// @dev guarantee and deposit must be in wei.  the deposit amount will be\n    /// subtracted from the guarantee.  dueDate should be in unix time and should match \n    /// the date of the show.\n      function createOffer(uint guarantee, uint deposit, uint dueDate) public onlyPurchaser {\n        require(deposit <= guarantee, 'deposit must be at least equal to guarantee');\n        offers.push(Offer(nextEventId, guarantee, deposit, dueDate));\n        nextEventId++;\n        emit OfferCreated(nextEventId, guarantee, deposit, dueDate);\n    }\n  \n  /// @notice creates the two parties invovled in the agreeement\n  /// @dev must be 2 separate accounts in order to send and receive the payments\n  /// @param _purchaser purchaser will set up the show, offers, and send money to the contract\n  /// @param _artist artist will approve the offer and final settlement in order to receive funds\n  function createParties(address payable _purchaser, address payable _artist) public {\n      purchaser = _purchaser;\n      artist = _artist;\n      \n      emit PartiesCreated(_purchaser, _artist);\n    \n  }\n  \n  /// @notice returns the offer for the show\n  /// @dev future implementation will have artist choose from different offers\n    function getAllOffers() public view returns (Offer[] memory) {\n        return offers;\n    }\n  \n  /// @notice artist is able to approve the offer to receive deposit\n  /// @param _index artist selects offer to approve\n  /// @dev the amount currently in the contract should be greater than the\n  /// amount being offered\n  function approveOffer(uint _index) public onlyArtist nonReentrant()  {\n      Offer storage offer = offers[_index];\n      require(address(this).balance >= offer.guarantee, 'Not enough money');\n\n    require(offer.deposit > 0, 'already sent');\n    artist.transfer(offer.deposit);\n    offer.guarantee -= offer.deposit;\n    offer.deposit -= offer.deposit;\n    \n\n     \n    emit OfferApproved(offer.guarantee, offer.deposit, offer.dueDate);\n \n  }\n\n\n  /// @notice artist receives full guarantee upon completion of show\n  /// @dev once the unix time is greater or equal to the block timestamp, the \n  /// artist is able to receive the guarantee\n  function receiveFullGuarantee(uint _index) public onlyArtist nonReentrant() {\n      Offer storage offer = offers[_index];\n      require(block.timestamp >= offer.dueDate);\n      artist.transfer(offer.guarantee);\n        offer.guarantee -= offer.guarantee;\n        finalpayment = true;\n\n        emit ShowSettled(offer.guarantee, offer.deposit,  offer.dueDate);\n      \n  }\n  /// @notice checks current balance of the contract\n      function getBalance() public view returns(uint) {\n        return address(this).balance;\n    }\n    \n  /// @notice purchaser sends money to fund the show\n        function sendMoney() public payable onlyPurchaser {\n        balanceReceived[msg.sender] += msg.value;\n        \n    }\n    \n  /// @notice purchaser withdraws money from contract\n  /// @dev final payment should be received from artist for this to work\n    function withdraw() public onlyPurchaser {\n        require(finalpayment == true, \"You must complete payment\");\n        purchaser.transfer(address(this).balance);\n\n    }\n\n        function cancelShow(uint _index) public onlyOwner {\n        Offer storage offer = offers[_index];\n        purchaser.transfer(address(this).balance);\n        \n    }\n\n  \n}",
  "sourcePath": "/Users/jonprine/Desktop/ethereum/consensys/blockchain-developer-bootcamp-final-project/contracts/Concert.sol",
  "compiler": {
    "name": "solc",
    "version": "0.8.0+commit.c7dfd78e.Emscripten.clang"
  },
  "schemaVersion": "3.3.4",
  "updatedAt": "2021-11-30T03:29:47.812Z",
  "networkType": "ethereum",
  "devdoc": {
    "author": "Jon Prine",
    "kind": "dev",
    "methods": {
      "approveOffer(uint256)": {
        "details": "the amount currently in the contract should be greater than the amount being offered",
        "params": {
          "_index": "artist selects offer to approve"
        }
      },
      "createEvent(string,string,string,string)": {
        "params": {
          "billing": "how the artist will be billed",
          "city": "where the show will take place",
          "date": "date in which show will take place",
          "venue": "venue where the show will be held"
        }
      },
      "createOffer(uint256,uint256,uint256)": {
        "details": "guarantee and deposit must be in wei.  the deposit amount will be subtracted from the guarantee.  dueDate should be in unix time and should match  the date of the show.",
        "params": {
          "deposit": "the amount the artist will be paid upon confirmation",
          "dueDate": "date in which final payment is due",
          "guarantee": "the amount in which artist will be paid"
        }
      },
      "createParties(address,address)": {
        "details": "must be 2 separate accounts in order to send and receive the payments",
        "params": {
          "_artist": "artist will approve the offer and final settlement in order to receive funds",
          "_purchaser": "purchaser will set up the show, offers, and send money to the contract"
        }
      },
      "getAllOffers()": {
        "details": "future implementation will have artist choose from different offers"
      },
      "owner()": {
        "details": "Returns the address of the current owner."
      },
      "readEvent()": {
        "details": "will grab the show that was just created. a future implementation to  do multiple shows"
      },
      "receiveFullGuarantee(uint256)": {
        "details": "once the unix time is greater or equal to the block timestamp, the  artist is able to receive the guarantee"
      },
      "renounceOwnership()": {
        "details": "Leaves the contract without owner. It will not be possible to call `onlyOwner` functions anymore. Can only be called by the current owner. NOTE: Renouncing ownership will leave the contract without an owner, thereby removing any functionality that is only available to the owner."
      },
      "transferOwnership(address)": {
        "details": "Transfers ownership of the contract to a new account (`newOwner`). Can only be called by the current owner."
      },
      "withdraw()": {
        "details": "final payment should be received from artist for this to work"
      }
    },
    "stateVariables": {
      "finalpayment": {
        "details": "this is used to make sure final payment is complete before purchaser can withdraw"
      },
      "offers": {
        "details": "more useful in future implementation when artist can select from different offers to a specific show"
      },
      "shows": {
        "details": "more useful in a future implmentation when offering multiple dates"
      }
    },
    "title": "dyob - do your own band",
    "version": 1
  },
  "userdoc": {
    "events": {
      "EventCreated(uint256,string,string,string,string)": {
        "notice": "new show has been created"
      },
      "OfferApproved(uint256,uint256,uint256)": {
        "notice": "offer has been approved by the artist"
      },
      "OfferCreated(uint256,uint256,uint256,uint256)": {
        "notice": "new offer has been created"
      },
      "PartiesCreated(address,address)": {
        "notice": "eventscreates the parties in the agreement"
      },
      "ShowSettled(uint256,uint256,uint256)": {
        "notice": "final settlement when artist receives full guarantee"
      }
    },
    "kind": "user",
    "methods": {
      "approveOffer(uint256)": {
        "notice": "artist is able to approve the offer to receive deposit"
      },
      "createEvent(string,string,string,string)": {
        "notice": "creates a new show"
      },
      "createOffer(uint256,uint256,uint256)": {
        "notice": "creates the offer for the show"
      },
      "createParties(address,address)": {
        "notice": "creates the two parties invovled in the agreeement"
      },
      "getAllOffers()": {
        "notice": "returns the offer for the show"
      },
      "getBalance()": {
        "notice": "checks current balance of the contract"
      },
      "purchaser()": {
        "notice": "sets accounts to purchaser and artist"
      },
      "readEvent()": {
        "notice": "returns all the shows that have been created"
      },
      "receiveFullGuarantee(uint256)": {
        "notice": "artist receives full guarantee upon completion of show"
      },
      "sendMoney()": {
        "notice": "purchaser sends money to fund the show"
      },
      "shows(uint256)": {
        "notice": "creates an array of shows"
      },
      "withdraw()": {
        "notice": "purchaser withdraws money from contract"
      }
    },
    "notice": "A performance agreement between purchaser and artist",
    "version": 1
  }
}