{
  "contractName": "Concert",
  "abi": [
    {
      "anonymous": false,
      "inputs": [
        {
          "indexed": false,
          "internalType": "uint256",
          "name": "id",
          "type": "uint256"
        },
        {
          "indexed": false,
          "internalType": "string",
          "name": "date",
          "type": "string"
        },
        {
          "indexed": false,
          "internalType": "string",
          "name": "billing",
          "type": "string"
        },
        {
          "indexed": false,
          "internalType": "string",
          "name": "city",
          "type": "string"
        },
        {
          "indexed": false,
          "internalType": "string",
          "name": "venue",
          "type": "string"
        }
      ],
      "name": "EventCreated",
      "type": "event"
    },
    {
      "anonymous": false,
      "inputs": [
        {
          "indexed": false,
          "internalType": "uint256",
          "name": "guarantee",
          "type": "uint256"
        },
        {
          "indexed": false,
          "internalType": "uint256",
          "name": "deposit",
          "type": "uint256"
        },
        {
          "indexed": false,
          "internalType": "uint256",
          "name": "dueDate",
          "type": "uint256"
        }
      ],
      "name": "OfferApproved",
      "type": "event"
    },
    {
      "anonymous": false,
      "inputs": [
        {
          "indexed": false,
          "internalType": "uint256",
          "name": "id",
          "type": "uint256"
        },
        {
          "indexed": false,
          "internalType": "uint256",
          "name": "guarantee",
          "type": "uint256"
        },
        {
          "indexed": false,
          "internalType": "uint256",
          "name": "deposit",
          "type": "uint256"
        },
        {
          "indexed": false,
          "internalType": "uint256",
          "name": "dueDate",
          "type": "uint256"
        }
      ],
      "name": "OfferCreated",
      "type": "event"
    },
    {
      "anonymous": false,
      "inputs": [
        {
          "indexed": false,
          "internalType": "address",
          "name": "purchaser",
          "type": "address"
        },
        {
          "indexed": false,
          "internalType": "address",
          "name": "artist",
          "type": "address"
        }
      ],
      "name": "PartiesCreated",
      "type": "event"
    },
    {
      "anonymous": false,
      "inputs": [
        {
          "indexed": false,
          "internalType": "uint256",
          "name": "guarantee",
          "type": "uint256"
        },
        {
          "indexed": false,
          "internalType": "uint256",
          "name": "deposit",
          "type": "uint256"
        },
        {
          "indexed": false,
          "internalType": "uint256",
          "name": "dueDate",
          "type": "uint256"
        }
      ],
      "name": "ShowSettled",
      "type": "event"
    },
    {
      "inputs": [],
      "name": "artist",
      "outputs": [
        {
          "internalType": "address payable",
          "name": "",
          "type": "address"
        }
      ],
      "stateMutability": "view",
      "type": "function",
      "constant": true
    },
    {
      "inputs": [
        {
          "internalType": "address",
          "name": "",
          "type": "address"
        }
      ],
      "name": "balanceReceived",
      "outputs": [
        {
          "internalType": "uint256",
          "name": "",
          "type": "uint256"
        }
      ],
      "stateMutability": "view",
      "type": "function",
      "constant": true
    },
    {
      "inputs": [],
      "name": "confirmedShow",
      "outputs": [
        {
          "internalType": "bool",
          "name": "",
          "type": "bool"
        }
      ],
      "stateMutability": "view",
      "type": "function",
      "constant": true
    },
    {
      "inputs": [],
      "name": "nextEventId",
      "outputs": [
        {
          "internalType": "uint256",
          "name": "",
          "type": "uint256"
        }
      ],
      "stateMutability": "view",
      "type": "function",
      "constant": true
    },
    {
      "inputs": [],
      "name": "nextId",
      "outputs": [
        {
          "internalType": "uint256",
          "name": "",
          "type": "uint256"
        }
      ],
      "stateMutability": "view",
      "type": "function",
      "constant": true
    },
    {
      "inputs": [
        {
          "internalType": "uint256",
          "name": "",
          "type": "uint256"
        }
      ],
      "name": "offers",
      "outputs": [
        {
          "internalType": "uint256",
          "name": "id",
          "type": "uint256"
        },
        {
          "internalType": "uint256",
          "name": "guarantee",
          "type": "uint256"
        },
        {
          "internalType": "uint256",
          "name": "deposit",
          "type": "uint256"
        },
        {
          "internalType": "uint256",
          "name": "dueDate",
          "type": "uint256"
        }
      ],
      "stateMutability": "view",
      "type": "function",
      "constant": true
    },
    {
      "inputs": [],
      "name": "purchaser",
      "outputs": [
        {
          "internalType": "address payable",
          "name": "",
          "type": "address"
        }
      ],
      "stateMutability": "view",
      "type": "function",
      "constant": true
    },
    {
      "inputs": [
        {
          "internalType": "uint256",
          "name": "",
          "type": "uint256"
        }
      ],
      "name": "shows",
      "outputs": [
        {
          "internalType": "uint256",
          "name": "id",
          "type": "uint256"
        },
        {
          "internalType": "string",
          "name": "date",
          "type": "string"
        },
        {
          "internalType": "string",
          "name": "billing",
          "type": "string"
        },
        {
          "internalType": "string",
          "name": "city",
          "type": "string"
        },
        {
          "internalType": "string",
          "name": "venue",
          "type": "string"
        }
      ],
      "stateMutability": "view",
      "type": "function",
      "constant": true
    },
    {
      "inputs": [
        {
          "internalType": "string",
          "name": "date",
          "type": "string"
        },
        {
          "internalType": "string",
          "name": "billing",
          "type": "string"
        },
        {
          "internalType": "string",
          "name": "city",
          "type": "string"
        },
        {
          "internalType": "string",
          "name": "venue",
          "type": "string"
        }
      ],
      "name": "createEvent",
      "outputs": [],
      "stateMutability": "nonpayable",
      "type": "function"
    },
    {
      "inputs": [],
      "name": "readEvent",
      "outputs": [
        {
          "components": [
            {
              "internalType": "uint256",
              "name": "id",
              "type": "uint256"
            },
            {
              "internalType": "string",
              "name": "date",
              "type": "string"
            },
            {
              "internalType": "string",
              "name": "billing",
              "type": "string"
            },
            {
              "internalType": "string",
              "name": "city",
              "type": "string"
            },
            {
              "internalType": "string",
              "name": "venue",
              "type": "string"
            }
          ],
          "internalType": "struct Concert.Show[]",
          "name": "",
          "type": "tuple[]"
        }
      ],
      "stateMutability": "view",
      "type": "function",
      "constant": true
    },
    {
      "inputs": [
        {
          "internalType": "uint256",
          "name": "guarantee",
          "type": "uint256"
        },
        {
          "internalType": "uint256",
          "name": "deposit",
          "type": "uint256"
        },
        {
          "internalType": "uint256",
          "name": "dueDate",
          "type": "uint256"
        }
      ],
      "name": "createOffer",
      "outputs": [],
      "stateMutability": "nonpayable",
      "type": "function"
    },
    {
      "inputs": [
        {
          "internalType": "address payable",
          "name": "_purchaser",
          "type": "address"
        },
        {
          "internalType": "address payable",
          "name": "_artist",
          "type": "address"
        }
      ],
      "name": "createParties",
      "outputs": [],
      "stateMutability": "nonpayable",
      "type": "function"
    },
    {
      "inputs": [],
      "name": "getAllOffers",
      "outputs": [
        {
          "components": [
            {
              "internalType": "uint256",
              "name": "id",
              "type": "uint256"
            },
            {
              "internalType": "uint256",
              "name": "guarantee",
              "type": "uint256"
            },
            {
              "internalType": "uint256",
              "name": "deposit",
              "type": "uint256"
            },
            {
              "internalType": "uint256",
              "name": "dueDate",
              "type": "uint256"
            }
          ],
          "internalType": "struct Concert.Offer[]",
          "name": "",
          "type": "tuple[]"
        }
      ],
      "stateMutability": "view",
      "type": "function",
      "constant": true
    },
    {
      "inputs": [
        {
          "internalType": "uint256",
          "name": "_index",
          "type": "uint256"
        }
      ],
      "name": "approveOffer",
      "outputs": [],
      "stateMutability": "nonpayable",
      "type": "function"
    },
    {
      "inputs": [
        {
          "internalType": "uint256",
          "name": "_index",
          "type": "uint256"
        }
      ],
      "name": "receiveFullGuarantee",
      "outputs": [],
      "stateMutability": "nonpayable",
      "type": "function"
    },
    {
      "inputs": [],
      "name": "getBalance",
      "outputs": [
        {
          "internalType": "uint256",
          "name": "",
          "type": "uint256"
        }
      ],
      "stateMutability": "view",
      "type": "function",
      "constant": true
    },
    {
      "inputs": [],
      "name": "sendMoney",
      "outputs": [],
      "stateMutability": "payable",
      "type": "function",
      "payable": true
    },
    {
      "inputs": [],
      "name": "withdraw",
      "outputs": [],
      "stateMutability": "nonpayable",
      "type": "function"
    }
  ],
  "bytecode": "0x608060405234801561001057600080fd5b5060016000819055506122c7806100286000396000f3fe6080604052600436106101095760003560e01c806387493e1011610095578063a5d7c10a11610064578063a5d7c10a14610350578063cbedbf5a14610379578063d18a42e114610383578063dc35a900146103c0578063fa3a7271146103e957610109565b806387493e10146102915780638a72ea6a146102ba5780639f9d903a146102fa578063a16552781461032557610109565b806343bc1612116100dc57806343bc1612146101bc5780635a77dc46146101e757806361b8ce8c1461021257806366de706a1461023d5780636ba9bc411461026857610109565b806305aea97c1461010e57806312065fe01461013957806330f0931e146101645780633ccfd60b146101a5575b600080fd5b34801561011a57600080fd5b50610123610412565b6040516101309190611cb4565b60405180910390f35b34801561014557600080fd5b5061014e6106c3565b60405161015b9190611dd1565b60405180910390f35b34801561017057600080fd5b5061018b60048036038101906101869190611754565b6106cb565b60405161019c959493929190611dec565b60405180910390f35b3480156101b157600080fd5b506101ba610931565b005b3480156101c857600080fd5b506101d1610a82565b6040516101de9190611c4e565b60405180910390f35b3480156101f357600080fd5b506101fc610aa8565b6040516102099190611c4e565b60405180910390f35b34801561021e57600080fd5b50610227610ace565b6040516102349190611dd1565b60405180910390f35b34801561024957600080fd5b50610252610ad4565b60405161025f9190611cd6565b60405180910390f35b34801561027457600080fd5b5061028f600480360381019061028a9190611754565b610ae7565b005b34801561029d57600080fd5b506102b860048036038101906102b39190611655565b610d1c565b005b3480156102c657600080fd5b506102e160048036038101906102dc9190611754565b610ddb565b6040516102f19493929190611e92565b60405180910390f35b34801561030657600080fd5b5061030f610e1b565b60405161031c9190611dd1565b60405180910390f35b34801561033157600080fd5b5061033a610e21565b6040516103479190611c92565b60405180910390f35b34801561035c57600080fd5b5061037760048036038101906103729190611754565b610ea8565b005b610381611078565b005b34801561038f57600080fd5b506103aa60048036038101906103a5919061162c565b611160565b6040516103b79190611dd1565b60405180910390f35b3480156103cc57600080fd5b506103e760048036038101906103e2919061177d565b611178565b005b3480156103f557600080fd5b50610410600480360381019061040b9190611691565b61131f565b005b60606001805480602002602001604051908101604052809291908181526020016000905b828210156106ba57838290600052602060002090600502016040518060a00160405290816000820154815260200160018201805461047390612133565b80601f016020809104026020016040519081016040528092919081815260200182805461049f90612133565b80156104ec5780601f106104c1576101008083540402835291602001916104ec565b820191906000526020600020905b8154815290600101906020018083116104cf57829003601f168201915b5050505050815260200160028201805461050590612133565b80601f016020809104026020016040519081016040528092919081815260200182805461053190612133565b801561057e5780601f106105535761010080835404028352916020019161057e565b820191906000526020600020905b81548152906001019060200180831161056157829003601f168201915b5050505050815260200160038201805461059790612133565b80601f01602080910402602001604051908101604052809291908181526020018280546105c390612133565b80156106105780601f106105e557610100808354040283529160200191610610565b820191906000526020600020905b8154815290600101906020018083116105f357829003601f168201915b5050505050815260200160048201805461062990612133565b80601f016020809104026020016040519081016040528092919081815260200182805461065590612133565b80156106a25780601f10610677576101008083540402835291602001916106a2565b820191906000526020600020905b81548152906001019060200180831161068557829003601f168201915b50505050508152505081526020019060010190610436565b50505050905090565b600047905090565b600181815481106106db57600080fd5b906000526020600020906005020160009150905080600001549080600101805461070490612133565b80601f016020809104026020016040519081016040528092919081815260200182805461073090612133565b801561077d5780601f106107525761010080835404028352916020019161077d565b820191906000526020600020905b81548152906001019060200180831161076057829003601f168201915b50505050509080600201805461079290612133565b80601f01602080910402602001604051908101604052809291908181526020018280546107be90612133565b801561080b5780601f106107e05761010080835404028352916020019161080b565b820191906000526020600020905b8154815290600101906020018083116107ee57829003601f168201915b50505050509080600301805461082090612133565b80601f016020809104026020016040519081016040528092919081815260200182805461084c90612133565b80156108995780601f1061086e57610100808354040283529160200191610899565b820191906000526020600020905b81548152906001019060200180831161087c57829003601f168201915b5050505050908060040180546108ae90612133565b80601f01602080910402602001604051908101604052809291908181526020018280546108da90612133565b80156109275780601f106108fc57610100808354040283529160200191610927565b820191906000526020600020905b81548152906001019060200180831161090a57829003601f168201915b5050505050905085565b600460009054906101000a900473ffffffffffffffffffffffffffffffffffffffff1673ffffffffffffffffffffffffffffffffffffffff163373ffffffffffffffffffffffffffffffffffffffff16146109c1576040517f08c379a00000000000000000000000000000000000000000000000000000000081526004016109b890611d51565b60405180910390fd5b60011515600560159054906101000a900460ff16151514610a17576040517f08c379a0000000000000000000000000000000000000000000000000000000008152600401610a0e90611d11565b60405180910390fd5b600460009054906101000a900473ffffffffffffffffffffffffffffffffffffffff1673ffffffffffffffffffffffffffffffffffffffff166108fc479081150290604051600060405180830381858888f19350505050158015610a7f573d6000803e3d6000fd5b50565b600560009054906101000a900473ffffffffffffffffffffffffffffffffffffffff1681565b600460009054906101000a900473ffffffffffffffffffffffffffffffffffffffff1681565b60025481565b600560149054906101000a900460ff1681565b600560009054906101000a900473ffffffffffffffffffffffffffffffffffffffff1673ffffffffffffffffffffffffffffffffffffffff163373ffffffffffffffffffffffffffffffffffffffff1614610b77576040517f08c379a0000000000000000000000000000000000000000000000000000000008152600401610b6e90611d71565b60405180910390fd5b60026000541415610bbd576040517f08c379a0000000000000000000000000000000000000000000000000000000008152600401610bb490611db1565b60405180910390fd5b6002600081905550600060078281548110610c01577f4e487b7100000000000000000000000000000000000000000000000000000000600052603260045260246000fd5b906000526020600020906004020190508060030154421015610c2257600080fd5b600560009054906101000a900473ffffffffffffffffffffffffffffffffffffffff1673ffffffffffffffffffffffffffffffffffffffff166108fc82600101549081150290604051600060405180830381858888f19350505050158015610c8e573d6000803e3d6000fd5b508060010154816001016000828254610ca7919061202d565b925050819055506001600560156101000a81548160ff0219169083151502179055507f4dca92ada305267e7c2c9d4948f1f31370613e03341727bd8cbd355c729b67e7816001015482600201548360030154604051610d0893929190611e5b565b60405180910390a150600160008190555050565b81600460006101000a81548173ffffffffffffffffffffffffffffffffffffffff021916908373ffffffffffffffffffffffffffffffffffffffff16021790555080600560006101000a81548173ffffffffffffffffffffffffffffffffffffffff021916908373ffffffffffffffffffffffffffffffffffffffff1602179055507f0ef5764710977616a7004858b27daaf4dff069d89a97f4b14461cc18ef7a1b3c8282604051610dcf929190611c69565b60405180910390a15050565b60078181548110610deb57600080fd5b90600052602060002090600402016000915090508060000154908060010154908060020154908060030154905084565b60035481565b60606007805480602002602001604051908101604052809291908181526020016000905b82821015610e9f578382906000526020600020906004020160405180608001604052908160008201548152602001600182015481526020016002820154815260200160038201548152505081526020019060010190610e45565b50505050905090565b600060078281548110610ee4577f4e487b7100000000000000000000000000000000000000000000000000000000600052603260045260246000fd5b906000526020600020906004020190508060010154471015610f3b576040517f08c379a0000000000000000000000000000000000000000000000000000000008152600401610f3290611cf1565b60405180910390fd5b6000816002015411610f82576040517f08c379a0000000000000000000000000000000000000000000000000000000008152600401610f7990611d31565b60405180910390fd5b600560009054906101000a900473ffffffffffffffffffffffffffffffffffffffff1673ffffffffffffffffffffffffffffffffffffffff166108fc82600201549081150290604051600060405180830381858888f19350505050158015610fee573d6000803e3d6000fd5b508060020154816001016000828254611007919061202d565b925050819055508060020154816002016000828254611026919061202d565b925050819055507fc728fc3512a4e0530edcad460ec15429ef648346dc82ae7b8e18e7d4dca8a9e381600101548260020154836003015460405161106c93929190611e5b565b60405180910390a15050565b600460009054906101000a900473ffffffffffffffffffffffffffffffffffffffff1673ffffffffffffffffffffffffffffffffffffffff163373ffffffffffffffffffffffffffffffffffffffff1614611108576040517f08c379a00000000000000000000000000000000000000000000000000000000081526004016110ff90611d51565b60405180910390fd5b34600660003373ffffffffffffffffffffffffffffffffffffffff1673ffffffffffffffffffffffffffffffffffffffff16815260200190815260200160002060008282546111579190611fd7565b92505081905550565b60066020528060005260406000206000915090505481565b600460009054906101000a900473ffffffffffffffffffffffffffffffffffffffff1673ffffffffffffffffffffffffffffffffffffffff163373ffffffffffffffffffffffffffffffffffffffff1614611208576040517f08c379a00000000000000000000000000000000000000000000000000000000081526004016111ff90611d51565b60405180910390fd5b8282111561124b576040517f08c379a000000000000000000000000000000000000000000000000000000000815260040161124290611d91565b60405180910390fd5b600760405180608001604052806003548152602001858152602001848152602001838152509080600181540180825580915050600190039060005260206000209060040201600090919091909150600082015181600001556020820151816001015560408201518160020155606082015181600301555050600360008154809291906112d690612165565b91905055507fe051046491452f69b12482db969cb77bd7173aa0071ba153b0699117eca3b34d6003548484846040516113129493929190611e92565b60405180910390a1505050565b600460009054906101000a900473ffffffffffffffffffffffffffffffffffffffff1673ffffffffffffffffffffffffffffffffffffffff163373ffffffffffffffffffffffffffffffffffffffff16146113af576040517f08c379a00000000000000000000000000000000000000000000000000000000081526004016113a690611d51565b60405180910390fd5b60016040518060a0016040528060025481526020018681526020018581526020018481526020018381525090806001815401808255809150506001900390600052602060002090600502016000909190919091506000820151816000015560208201518160010190805190602001906114299291906114e2565b5060408201518160020190805190602001906114469291906114e2565b5060608201518160030190805190602001906114639291906114e2565b5060808201518160040190805190602001906114809291906114e2565b5050506002600081548092919061149690612165565b91905055507fe56179a52a14139cb391691bbf1307a510e3066898c4bd05b601b02938ff1be1600254858585856040516114d4959493929190611dec565b60405180910390a150505050565b8280546114ee90612133565b90600052602060002090601f0160209004810192826115105760008555611557565b82601f1061152957805160ff1916838001178555611557565b82800160010185558215611557579182015b8281111561155657825182559160200191906001019061153b565b5b5090506115649190611568565b5090565b5b80821115611581576000816000905550600101611569565b5090565b600061159861159384611f08565b611ed7565b9050828152602081018484840111156115b057600080fd5b6115bb8482856120f1565b509392505050565b6000813590506115d28161224c565b92915050565b6000813590506115e781612263565b92915050565b600082601f8301126115fe57600080fd5b813561160e848260208601611585565b91505092915050565b6000813590506116268161227a565b92915050565b60006020828403121561163e57600080fd5b600061164c848285016115c3565b91505092915050565b6000806040838503121561166857600080fd5b6000611676858286016115d8565b9250506020611687858286016115d8565b9150509250929050565b600080600080608085870312156116a757600080fd5b600085013567ffffffffffffffff8111156116c157600080fd5b6116cd878288016115ed565b945050602085013567ffffffffffffffff8111156116ea57600080fd5b6116f6878288016115ed565b935050604085013567ffffffffffffffff81111561171357600080fd5b61171f878288016115ed565b925050606085013567ffffffffffffffff81111561173c57600080fd5b611748878288016115ed565b91505092959194509250565b60006020828403121561176657600080fd5b600061177484828501611617565b91505092915050565b60008060006060848603121561179257600080fd5b60006117a086828701611617565b93505060206117b186828701611617565b92505060406117c286828701611617565b9150509250925092565b60006117d88383611b50565b60808301905092915050565b60006117f08383611ba5565b905092915050565b611801816120bb565b82525050565b61181081612073565b82525050565b600061182182611f58565b61182b8185611f93565b935061183683611f38565b8060005b8381101561186757815161184e88826117cc565b975061185983611f79565b92505060018101905061183a565b5085935050505092915050565b600061187f82611f63565b6118898185611fa4565b93508360208202850161189b85611f48565b8060005b858110156118d757848403895281516118b885826117e4565b94506118c383611f86565b925060208a0199505060018101905061189f565b50829750879550505050505092915050565b6118f281612085565b82525050565b600061190382611f6e565b61190d8185611fb5565b935061191d818560208601612100565b6119268161223b565b840191505092915050565b600061193c82611f6e565b6119468185611fc6565b9350611956818560208601612100565b61195f8161223b565b840191505092915050565b6000611977601083611fc6565b91507f4e6f7420656e6f756768206d6f6e6579000000000000000000000000000000006000830152602082019050919050565b60006119b7601983611fc6565b91507f596f75206d75737420636f6d706c657465207061796d656e74000000000000006000830152602082019050919050565b60006119f7600c83611fc6565b91507f616c72656164792073656e7400000000000000000000000000000000000000006000830152602082019050919050565b6000611a37600f83611fc6565b91507f4f6e6c79205075726368617365722100000000000000000000000000000000006000830152602082019050919050565b6000611a77600c83611fc6565b91507f4f6e6c79204172746973742100000000000000000000000000000000000000006000830152602082019050919050565b6000611ab7602b83611fc6565b91507f6465706f736974206d757374206265206174206c6561737420657175616c207460008301527f6f2067756172616e7465650000000000000000000000000000000000000000006020830152604082019050919050565b6000611b1d601f83611fc6565b91507f5265656e7472616e637947756172643a207265656e7472616e742063616c6c006000830152602082019050919050565b608082016000820151611b666000850182611c30565b506020820151611b796020850182611c30565b506040820151611b8c6040850182611c30565b506060820151611b9f6060850182611c30565b50505050565b600060a083016000830151611bbd6000860182611c30565b5060208301518482036020860152611bd582826118f8565b91505060408301518482036040860152611bef82826118f8565b91505060608301518482036060860152611c0982826118f8565b91505060808301518482036080860152611c2382826118f8565b9150508091505092915050565b611c39816120b1565b82525050565b611c48816120b1565b82525050565b6000602082019050611c636000830184611807565b92915050565b6000604082019050611c7e60008301856117f8565b611c8b60208301846117f8565b9392505050565b60006020820190508181036000830152611cac8184611816565b905092915050565b60006020820190508181036000830152611cce8184611874565b905092915050565b6000602082019050611ceb60008301846118e9565b92915050565b60006020820190508181036000830152611d0a8161196a565b9050919050565b60006020820190508181036000830152611d2a816119aa565b9050919050565b60006020820190508181036000830152611d4a816119ea565b9050919050565b60006020820190508181036000830152611d6a81611a2a565b9050919050565b60006020820190508181036000830152611d8a81611a6a565b9050919050565b60006020820190508181036000830152611daa81611aaa565b9050919050565b60006020820190508181036000830152611dca81611b10565b9050919050565b6000602082019050611de66000830184611c3f565b92915050565b600060a082019050611e016000830188611c3f565b8181036020830152611e138187611931565b90508181036040830152611e278186611931565b90508181036060830152611e3b8185611931565b90508181036080830152611e4f8184611931565b90509695505050505050565b6000606082019050611e706000830186611c3f565b611e7d6020830185611c3f565b611e8a6040830184611c3f565b949350505050565b6000608082019050611ea76000830187611c3f565b611eb46020830186611c3f565b611ec16040830185611c3f565b611ece6060830184611c3f565b95945050505050565b6000604051905081810181811067ffffffffffffffff82111715611efe57611efd61220c565b5b8060405250919050565b600067ffffffffffffffff821115611f2357611f2261220c565b5b601f19601f8301169050602081019050919050565b6000819050602082019050919050565b6000819050602082019050919050565b600081519050919050565b600081519050919050565b600081519050919050565b6000602082019050919050565b6000602082019050919050565b600082825260208201905092915050565b600082825260208201905092915050565b600082825260208201905092915050565b600082825260208201905092915050565b6000611fe2826120b1565b9150611fed836120b1565b9250827fffffffffffffffffffffffffffffffffffffffffffffffffffffffffffffffff03821115612022576120216121ae565b5b828201905092915050565b6000612038826120b1565b9150612043836120b1565b925082821015612056576120556121ae565b5b828203905092915050565b600061206c82612091565b9050919050565b600061207e82612091565b9050919050565b60008115159050919050565b600073ffffffffffffffffffffffffffffffffffffffff82169050919050565b6000819050919050565b60006120c6826120cd565b9050919050565b60006120d8826120df565b9050919050565b60006120ea82612091565b9050919050565b82818337600083830152505050565b60005b8381101561211e578082015181840152602081019050612103565b8381111561212d576000848401525b50505050565b6000600282049050600182168061214b57607f821691505b6020821081141561215f5761215e6121dd565b5b50919050565b6000612170826120b1565b91507fffffffffffffffffffffffffffffffffffffffffffffffffffffffffffffffff8214156121a3576121a26121ae565b5b600182019050919050565b7f4e487b7100000000000000000000000000000000000000000000000000000000600052601160045260246000fd5b7f4e487b7100000000000000000000000000000000000000000000000000000000600052602260045260246000fd5b7f4e487b7100000000000000000000000000000000000000000000000000000000600052604160045260246000fd5b6000601f19601f8301169050919050565b61225581612061565b811461226057600080fd5b50565b61226c81612073565b811461227757600080fd5b50565b612283816120b1565b811461228e57600080fd5b5056fea26469706673582212205b889cfc6e3c0e386c2d23bea00ccd640ef084b9514523f994fd14b08cef9bcf64736f6c63430008000033",
  "immutableReferences": {},
  "source": "// SPDX-License-Identifier: UNLICENSED\n\npragma solidity 0.8.0;\nimport \"@openzeppelin/contracts/security/ReentrancyGuard.sol\";\n\n\ncontract Concert is ReentrancyGuard {\n    struct Show {\n    uint id;\n    string date;\n    string billing;\n    string city;\n    string venue;\n\n  }\n\n  Show[] public shows;\n  \n  struct Offer {\n    uint id;\n    uint guarantee;\n    uint deposit;\n    uint dueDate;\n   \n  }\n\n    uint public nextId;\n    uint public nextEventId;\n  \n  address payable public purchaser;\n  address payable public artist;\n  bool public confirmedShow;\n  bool finalpayment;\n  \n  mapping(address => uint) public balanceReceived;\n  \n  // events\n  event PartiesCreated(address purchaser, address artist);\n  event EventCreated(uint id, string date, string billing, string city, string venue);\n  event OfferCreated(uint id, uint guarantee, uint deposit, uint dueDate);\n  event OfferApproved(uint guarantee, uint deposit, uint dueDate);\n  event ShowSettled(uint guarantee, uint deposit, uint dueDate);\n  \n  \n  Offer[] public offers;\n  \n   modifier onlyPurchaser() {\n        require(msg.sender == purchaser, \"Only Purchaser!\");\n    _;\n    }\n    \n       modifier onlyArtist() {\n        require(msg.sender == artist, \"Only Artist!\");\n    _;\n    }\n    \n    function createEvent(\n        string memory date, string memory billing, string memory city, string memory venue) public onlyPurchaser {\n        shows.push(Show(nextId, date, billing, city, venue));\n        nextId++;\n        emit EventCreated(nextId, date, billing, city, venue);\n    }\n    \n    function readEvent() public view returns (Show[] memory) {\n        return shows;\n    }\n    \n      function createOffer(uint guarantee, uint deposit, uint dueDate) public onlyPurchaser {\n        require(deposit <= guarantee, 'deposit must be at least equal to guarantee');\n        offers.push(Offer(nextEventId, guarantee, deposit, dueDate));\n        nextEventId++;\n        emit OfferCreated(nextEventId, guarantee, deposit, dueDate);\n    }\n  \n  function createParties(address payable _purchaser, address payable _artist) public {\n      purchaser = _purchaser;\n      artist = _artist;\n      \n      emit PartiesCreated(_purchaser, _artist);\n    \n  }\n  \n    function getAllOffers() public view returns (Offer[] memory) {\n        return offers;\n    }\n  \n  function approveOffer(uint _index) public  {\n      Offer storage offer = offers[_index];\n      require(address(this).balance >= offer.guarantee, 'Not enough money');\n\n    require(offer.deposit > 0, 'already sent');\n    artist.transfer(offer.deposit);\n    offer.guarantee -= offer.deposit;\n    offer.deposit -= offer.deposit;\n    \n\n     \n    emit OfferApproved(offer.guarantee, offer.deposit, offer.dueDate);\n \n  }\n  \n  function receiveFullGuarantee(uint _index) public onlyArtist nonReentrant() {\n      Offer storage offer = offers[_index];\n      require(block.timestamp >= offer.dueDate);\n      artist.transfer(offer.guarantee);\n        offer.guarantee -= offer.guarantee;\n        finalpayment = true;\n\n        emit ShowSettled(offer.guarantee, offer.deposit,  offer.dueDate);\n      \n  }\n  \n      function getBalance() public view returns(uint) {\n        return address(this).balance;\n    }\n    \n        function sendMoney() public payable onlyPurchaser {\n        balanceReceived[msg.sender] += msg.value;\n        \n    }\n    \n    \n    function withdraw() public onlyPurchaser {\n        require(finalpayment == true, \"You must complete payment\");\n        purchaser.transfer(address(this).balance);\n\n    }\n\n  \n}",
  "sourcePath": "/Users/jonprine/Desktop/ethereum/consensys/blockchain-developer-bootcamp-final-project/contracts/Concert.sol",
  "compiler": {
    "name": "solc",
    "version": "0.8.0+commit.c7dfd78e.Emscripten.clang"
  },
  "schemaVersion": "3.3.4",
  "updatedAt": "2021-11-28T18:52:34.523Z",
  "networkType": "ethereum",
  "devdoc": {
    "kind": "dev",
    "methods": {},
    "version": 1
  },
  "userdoc": {
    "kind": "user",
    "methods": {},
    "version": 1
  }
}