{
  "contractName": "Concert",
  "abi": [
    {
      "anonymous": false,
      "inputs": [
        {
          "indexed": false,
          "internalType": "string",
          "name": "date",
          "type": "string"
        },
        {
          "indexed": false,
          "internalType": "string",
          "name": "billing",
          "type": "string"
        },
        {
          "indexed": false,
          "internalType": "string",
          "name": "city",
          "type": "string"
        },
        {
          "indexed": false,
          "internalType": "string",
          "name": "venue",
          "type": "string"
        }
      ],
      "name": "EventCreated",
      "type": "event"
    },
    {
      "anonymous": false,
      "inputs": [
        {
          "indexed": false,
          "internalType": "uint256",
          "name": "guarantee",
          "type": "uint256"
        },
        {
          "indexed": false,
          "internalType": "uint256",
          "name": "deposit",
          "type": "uint256"
        },
        {
          "indexed": false,
          "internalType": "bool",
          "name": "confirmed",
          "type": "bool"
        },
        {
          "indexed": false,
          "internalType": "bool",
          "name": "depositPaid",
          "type": "bool"
        },
        {
          "indexed": false,
          "internalType": "uint256",
          "name": "dueDate",
          "type": "uint256"
        },
        {
          "indexed": false,
          "internalType": "bool",
          "name": "guaranteePaid",
          "type": "bool"
        }
      ],
      "name": "OfferCreated",
      "type": "event"
    },
    {
      "anonymous": false,
      "inputs": [
        {
          "indexed": false,
          "internalType": "address",
          "name": "purchaser",
          "type": "address"
        },
        {
          "indexed": false,
          "internalType": "address",
          "name": "artist",
          "type": "address"
        }
      ],
      "name": "PartiesCreated",
      "type": "event"
    },
    {
      "inputs": [],
      "name": "artist",
      "outputs": [
        {
          "internalType": "address payable",
          "name": "",
          "type": "address"
        }
      ],
      "stateMutability": "view",
      "type": "function"
    },
    {
      "inputs": [
        {
          "internalType": "address",
          "name": "",
          "type": "address"
        }
      ],
      "name": "balanceReceived",
      "outputs": [
        {
          "internalType": "uint256",
          "name": "",
          "type": "uint256"
        }
      ],
      "stateMutability": "view",
      "type": "function"
    },
    {
      "inputs": [],
      "name": "confirmedShow",
      "outputs": [
        {
          "internalType": "bool",
          "name": "",
          "type": "bool"
        }
      ],
      "stateMutability": "view",
      "type": "function"
    },
    {
      "inputs": [
        {
          "internalType": "uint256",
          "name": "",
          "type": "uint256"
        }
      ],
      "name": "offers",
      "outputs": [
        {
          "internalType": "uint256",
          "name": "guarantee",
          "type": "uint256"
        },
        {
          "internalType": "uint256",
          "name": "deposit",
          "type": "uint256"
        },
        {
          "internalType": "bool",
          "name": "confirmed",
          "type": "bool"
        },
        {
          "internalType": "bool",
          "name": "depositPaid",
          "type": "bool"
        },
        {
          "internalType": "uint256",
          "name": "dueDate",
          "type": "uint256"
        },
        {
          "internalType": "bool",
          "name": "guaranteePaid",
          "type": "bool"
        }
      ],
      "stateMutability": "view",
      "type": "function"
    },
    {
      "inputs": [],
      "name": "purchaser",
      "outputs": [
        {
          "internalType": "address payable",
          "name": "",
          "type": "address"
        }
      ],
      "stateMutability": "view",
      "type": "function"
    },
    {
      "inputs": [
        {
          "internalType": "string",
          "name": "_date",
          "type": "string"
        },
        {
          "internalType": "string",
          "name": "_billing",
          "type": "string"
        },
        {
          "internalType": "string",
          "name": "_city",
          "type": "string"
        },
        {
          "internalType": "string",
          "name": "_venue",
          "type": "string"
        }
      ],
      "name": "createEvent",
      "outputs": [],
      "stateMutability": "nonpayable",
      "type": "function"
    },
    {
      "inputs": [],
      "name": "readEvent",
      "outputs": [
        {
          "internalType": "string",
          "name": "date",
          "type": "string"
        },
        {
          "internalType": "string",
          "name": "billing",
          "type": "string"
        },
        {
          "internalType": "string",
          "name": "venue",
          "type": "string"
        },
        {
          "internalType": "string",
          "name": "city",
          "type": "string"
        }
      ],
      "stateMutability": "view",
      "type": "function"
    },
    {
      "inputs": [
        {
          "internalType": "uint256",
          "name": "_guarantee",
          "type": "uint256"
        },
        {
          "internalType": "uint256",
          "name": "_dueDate",
          "type": "uint256"
        }
      ],
      "name": "createOffer",
      "outputs": [],
      "stateMutability": "nonpayable",
      "type": "function"
    },
    {
      "inputs": [
        {
          "internalType": "address payable",
          "name": "_purchaser",
          "type": "address"
        },
        {
          "internalType": "address payable",
          "name": "_artist",
          "type": "address"
        }
      ],
      "name": "createParties",
      "outputs": [],
      "stateMutability": "nonpayable",
      "type": "function"
    },
    {
      "inputs": [],
      "name": "getAllOffers",
      "outputs": [
        {
          "components": [
            {
              "internalType": "uint256",
              "name": "guarantee",
              "type": "uint256"
            },
            {
              "internalType": "uint256",
              "name": "deposit",
              "type": "uint256"
            },
            {
              "internalType": "bool",
              "name": "confirmed",
              "type": "bool"
            },
            {
              "internalType": "bool",
              "name": "depositPaid",
              "type": "bool"
            },
            {
              "internalType": "uint256",
              "name": "dueDate",
              "type": "uint256"
            },
            {
              "internalType": "bool",
              "name": "guaranteePaid",
              "type": "bool"
            }
          ],
          "internalType": "struct Concert.Offer[]",
          "name": "",
          "type": "tuple[]"
        }
      ],
      "stateMutability": "view",
      "type": "function"
    },
    {
      "inputs": [
        {
          "internalType": "uint256",
          "name": "_index",
          "type": "uint256"
        }
      ],
      "name": "approveOffer",
      "outputs": [],
      "stateMutability": "nonpayable",
      "type": "function"
    },
    {
      "inputs": [
        {
          "internalType": "uint256",
          "name": "_index",
          "type": "uint256"
        }
      ],
      "name": "receiveFullGuarantee",
      "outputs": [],
      "stateMutability": "nonpayable",
      "type": "function"
    },
    {
      "inputs": [],
      "name": "getBalance",
      "outputs": [
        {
          "internalType": "uint256",
          "name": "",
          "type": "uint256"
        }
      ],
      "stateMutability": "view",
      "type": "function"
    },
    {
      "inputs": [],
      "name": "sendMoney",
      "outputs": [],
      "stateMutability": "payable",
      "type": "function"
    },
    {
      "inputs": [
        {
          "internalType": "uint256",
          "name": "_index",
          "type": "uint256"
        }
      ],
      "name": "cancelShow",
      "outputs": [],
      "stateMutability": "nonpayable",
      "type": "function"
    },
    {
      "inputs": [],
      "name": "withdraw",
      "outputs": [],
      "stateMutability": "nonpayable",
      "type": "function"
    }
  ],
  "bytecode": "0x608060405234801561001057600080fd5b506001600081905550612052806100286000396000f3fe6080604052600436106100f35760003560e01c80636ba9bc411161008a578063a5d7c10a11610059578063a5d7c10a146102fa578063cbedbf5a14610323578063d18a42e11461032d578063fa3a72711461036a576100f3565b80636ba9bc411461023b57806387493e10146102645780638a72ea6a1461028d578063a1655278146102cf576100f3565b80633ccfd60b116100c65780633ccfd60b146101a357806343bc1612146101ba5780635a77dc46146101e557806366de706a14610210576100f3565b806305aea97c146100f857806312065fe0146101265780631afed875146101515780632d587af61461017a575b600080fd5b34801561010457600080fd5b5061010d610393565b60405161011d9493929190611aed565b60405180910390f35b34801561013257600080fd5b5061013b6105de565b6040516101489190611c0e565b60405180910390f35b34801561015d57600080fd5b50610178600480360381019061017391906116fd565b6105e6565b005b34801561018657600080fd5b506101a1600480360381019061019c91906116d4565b6107be565b005b3480156101af57600080fd5b506101b8610924565b005b3480156101c657600080fd5b506101cf610a75565b6040516101dc9190611a6c565b60405180910390f35b3480156101f157600080fd5b506101fa610a9b565b6040516102079190611a6c565b60405180910390f35b34801561021c57600080fd5b50610225610ac1565b6040516102329190611ad2565b60405180910390f35b34801561024757600080fd5b50610262600480360381019061025d91906116d4565b610ad4565b005b34801561027057600080fd5b5061028b600480360381019061028691906115d5565b610d45565b005b34801561029957600080fd5b506102b460048036038101906102af91906116d4565b610e04565b6040516102c696959493929190611c29565b60405180910390f35b3480156102db57600080fd5b506102e4610e77565b6040516102f19190611ab0565b60405180910390f35b34801561030657600080fd5b50610321600480360381019061031c91906116d4565b610f45565b005b61032b611228565b005b34801561033957600080fd5b50610354600480360381019061034f91906115ac565b611310565b6040516103619190611c0e565b60405180910390f35b34801561037657600080fd5b50610391600480360381019061038c9190611611565b611328565b005b606080606080600160000180546103a990611ed8565b80601f01602080910402602001604051908101604052809291908181526020018280546103d590611ed8565b80156104225780601f106103f757610100808354040283529160200191610422565b820191906000526020600020905b81548152906001019060200180831161040557829003601f168201915b5050505050935060018001805461043890611ed8565b80601f016020809104026020016040519081016040528092919081815260200182805461046490611ed8565b80156104b15780601f10610486576101008083540402835291602001916104b1565b820191906000526020600020905b81548152906001019060200180831161049457829003601f168201915b50505050509250600160030180546104c890611ed8565b80601f01602080910402602001604051908101604052809291908181526020018280546104f490611ed8565b80156105415780601f1061051657610100808354040283529160200191610541565b820191906000526020600020905b81548152906001019060200180831161052457829003601f168201915b505050505091506001600201805461055890611ed8565b80601f016020809104026020016040519081016040528092919081815260200182805461058490611ed8565b80156105d15780601f106105a6576101008083540402835291602001916105d1565b820191906000526020600020905b8154815290600101906020018083116105b457829003601f168201915b5050505050905090919293565b600047905090565b600560009054906101000a900473ffffffffffffffffffffffffffffffffffffffff1673ffffffffffffffffffffffffffffffffffffffff163373ffffffffffffffffffffffffffffffffffffffff1614610676576040517f08c379a000000000000000000000000000000000000000000000000000000000815260040161066d90611b8e565b60405180910390fd5b60006040518060c001604052808481526020016002856106969190611da1565b81526020016000151581526020016000151581526020018381526020016000151581525090506008819080600181540180825580915050600190039060005260206000209060050201600090919091909150600082015181600001556020820151816001015560408201518160020160006101000a81548160ff02191690831515021790555060608201518160020160016101000a81548160ff0219169083151502179055506080820151816003015560a08201518160040160006101000a81548160ff02191690831515021790555050507f9184fafc8a8c142cbd15cdc4eea729e6207b9aa32653ac0c3c2cb56725483d0383826020015183604001518460600151868660a001516040516107b196959493929190611c29565b60405180910390a1505050565b600560009054906101000a900473ffffffffffffffffffffffffffffffffffffffff1673ffffffffffffffffffffffffffffffffffffffff163373ffffffffffffffffffffffffffffffffffffffff161461084e576040517f08c379a000000000000000000000000000000000000000000000000000000000815260040161084590611b8e565b60405180910390fd5b60006008828154811061088a577f4e487b7100000000000000000000000000000000000000000000000000000000600052603260045260246000fd5b9060005260206000209060050201905060008160020160006101000a81548160ff021916908315150217905550600560009054906101000a900473ffffffffffffffffffffffffffffffffffffffff1673ffffffffffffffffffffffffffffffffffffffff166108fc479081150290604051600060405180830381858888f1935050505015801561091f573d6000803e3d6000fd5b505050565b600560009054906101000a900473ffffffffffffffffffffffffffffffffffffffff1673ffffffffffffffffffffffffffffffffffffffff163373ffffffffffffffffffffffffffffffffffffffff16146109b4576040517f08c379a00000000000000000000000000000000000000000000000000000000081526004016109ab90611b8e565b60405180910390fd5b60011515600660159054906101000a900460ff16151514610a0a576040517f08c379a0000000000000000000000000000000000000000000000000000000008152600401610a0190611b6e565b60405180910390fd5b600560009054906101000a900473ffffffffffffffffffffffffffffffffffffffff1673ffffffffffffffffffffffffffffffffffffffff166108fc479081150290604051600060405180830381858888f19350505050158015610a72573d6000803e3d6000fd5b50565b600660009054906101000a900473ffffffffffffffffffffffffffffffffffffffff1681565b600560009054906101000a900473ffffffffffffffffffffffffffffffffffffffff1681565b600660149054906101000a900460ff1681565b600660009054906101000a900473ffffffffffffffffffffffffffffffffffffffff1673ffffffffffffffffffffffffffffffffffffffff163373ffffffffffffffffffffffffffffffffffffffff1614610b64576040517f08c379a0000000000000000000000000000000000000000000000000000000008152600401610b5b90611bae565b60405180910390fd5b60026000541415610baa576040517f08c379a0000000000000000000000000000000000000000000000000000000008152600401610ba190611bee565b60405180910390fd5b6002600081905550600060088281548110610bee577f4e487b7100000000000000000000000000000000000000000000000000000000600052603260045260246000fd5b906000526020600020906005020190508060030154421015610c0f57600080fd5b6000600660009054906101000a900473ffffffffffffffffffffffffffffffffffffffff1673ffffffffffffffffffffffffffffffffffffffff168260000154604051610c5b90611a57565b60006040518083038185875af1925050503d8060008114610c98576040519150601f19603f3d011682016040523d82523d6000602084013e610c9d565b606091505b5050905080610ce1576040517f08c379a0000000000000000000000000000000000000000000000000000000008152600401610cd890611bce565b60405180910390fd5b8160000154826000016000828254610cf99190611dd2565b9250508190555060018260040160006101000a81548160ff0219169083151502179055506001600660156101000a81548160ff0219169083151502179055505050600160008190555050565b81600560006101000a81548173ffffffffffffffffffffffffffffffffffffffff021916908373ffffffffffffffffffffffffffffffffffffffff16021790555080600660006101000a81548173ffffffffffffffffffffffffffffffffffffffff021916908373ffffffffffffffffffffffffffffffffffffffff1602179055507f0ef5764710977616a7004858b27daaf4dff069d89a97f4b14461cc18ef7a1b3c8282604051610df8929190611a87565b60405180910390a15050565b60088181548110610e1457600080fd5b90600052602060002090600502016000915090508060000154908060010154908060020160009054906101000a900460ff16908060020160019054906101000a900460ff16908060030154908060040160009054906101000a900460ff16905086565b60606008805480602002602001604051908101604052809291908181526020016000905b82821015610f3c57838290600052602060002090600502016040518060c001604052908160008201548152602001600182015481526020016002820160009054906101000a900460ff161515151581526020016002820160019054906101000a900460ff16151515158152602001600382015481526020016004820160009054906101000a900460ff16151515158152505081526020019060010190610e9b565b50505050905090565b600660009054906101000a900473ffffffffffffffffffffffffffffffffffffffff1673ffffffffffffffffffffffffffffffffffffffff163373ffffffffffffffffffffffffffffffffffffffff1614610fd5576040517f08c379a0000000000000000000000000000000000000000000000000000000008152600401610fcc90611bae565b60405180910390fd5b6002600054141561101b576040517f08c379a000000000000000000000000000000000000000000000000000000000815260040161101290611bee565b60405180910390fd5b600260008190555060006008828154811061105f577f4e487b7100000000000000000000000000000000000000000000000000000000600052603260045260246000fd5b9060005260206000209060050201905080600001544710156110b6576040517f08c379a00000000000000000000000000000000000000000000000000000000081526004016110ad90611b4e565b60405180910390fd5b60018160020160006101000a81548160ff0219169083151502179055506001600660146101000a81548160ff0219169083151502179055506000600660009054906101000a900473ffffffffffffffffffffffffffffffffffffffff1673ffffffffffffffffffffffffffffffffffffffff16826001015460405161113a90611a57565b60006040518083038185875af1925050503d8060008114611177576040519150601f19603f3d011682016040523d82523d6000602084013e61117c565b606091505b50509050806111c0576040517f08c379a00000000000000000000000000000000000000000000000000000000081526004016111b790611bce565b60405180910390fd5b81600101548260000160008282546111d89190611dd2565b9250508190555081600101548260010160008282546111f79190611dd2565b9250508190555060018260020160016101000a81548160ff0219169083151502179055505050600160008190555050565b600560009054906101000a900473ffffffffffffffffffffffffffffffffffffffff1673ffffffffffffffffffffffffffffffffffffffff163373ffffffffffffffffffffffffffffffffffffffff16146112b8576040517f08c379a00000000000000000000000000000000000000000000000000000000081526004016112af90611b8e565b60405180910390fd5b34600760003373ffffffffffffffffffffffffffffffffffffffff1673ffffffffffffffffffffffffffffffffffffffff16815260200190815260200160002060008282546113079190611d4b565b92505081905550565b60076020528060005260406000206000915090505481565b600560009054906101000a900473ffffffffffffffffffffffffffffffffffffffff1673ffffffffffffffffffffffffffffffffffffffff163373ffffffffffffffffffffffffffffffffffffffff16146113b8576040517f08c379a00000000000000000000000000000000000000000000000000000000081526004016113af90611b8e565b60405180910390fd5b83600160000190805190602001906113d1929190611462565b50826001800190805190602001906113ea929190611462565b508160016002019080519060200190611404929190611462565b50806001600301908051906020019061141e929190611462565b507f280db95667315d9d9ba2e1ab9f90b1e7c4c4944acfdbf3e1f7d5e5154ab269eb848484846040516114549493929190611aed565b60405180910390a150505050565b82805461146e90611ed8565b90600052602060002090601f01602090048101928261149057600085556114d7565b82601f106114a957805160ff19168380011785556114d7565b828001600101855582156114d7579182015b828111156114d65782518255916020019190600101906114bb565b5b5090506114e491906114e8565b5090565b5b808211156115015760008160009055506001016114e9565b5090565b600061151861151384611cbb565b611c8a565b90508281526020810184848401111561153057600080fd5b61153b848285611e96565b509392505050565b60008135905061155281611fd7565b92915050565b60008135905061156781611fee565b92915050565b600082601f83011261157e57600080fd5b813561158e848260208601611505565b91505092915050565b6000813590506115a681612005565b92915050565b6000602082840312156115be57600080fd5b60006115cc84828501611543565b91505092915050565b600080604083850312156115e857600080fd5b60006115f685828601611558565b925050602061160785828601611558565b9150509250929050565b6000806000806080858703121561162757600080fd5b600085013567ffffffffffffffff81111561164157600080fd5b61164d8782880161156d565b945050602085013567ffffffffffffffff81111561166a57600080fd5b6116768782880161156d565b935050604085013567ffffffffffffffff81111561169357600080fd5b61169f8782880161156d565b925050606085013567ffffffffffffffff8111156116bc57600080fd5b6116c88782880161156d565b91505092959194509250565b6000602082840312156116e657600080fd5b60006116f484828501611597565b91505092915050565b6000806040838503121561171057600080fd5b600061171e85828601611597565b925050602061172f85828601611597565b9150509250929050565b600061174583836119be565b60c08301905092915050565b61175a81611e60565b82525050565b61176981611e18565b82525050565b600061177a82611cfb565b6117848185611d1e565b935061178f83611ceb565b8060005b838110156117c05781516117a78882611739565b97506117b283611d11565b925050600181019050611793565b5085935050505092915050565b6117d681611e2a565b82525050565b6117e581611e2a565b82525050565b60006117f682611d06565b6118008185611d3a565b9350611810818560208601611ea5565b61181981611fc6565b840191505092915050565b6000611831601083611d3a565b91507f4e6f7420656e6f756768206d6f6e6579000000000000000000000000000000006000830152602082019050919050565b6000611871601983611d3a565b91507f596f75206d75737420636f6d706c657465207061796d656e74000000000000006000830152602082019050919050565b60006118b1600f83611d3a565b91507f4f6e6c79205075726368617365722100000000000000000000000000000000006000830152602082019050919050565b60006118f1600c83611d3a565b91507f4f6e6c79204172746973742100000000000000000000000000000000000000006000830152602082019050919050565b6000611931600083611d2f565b9150600082019050919050565b600061194b601083611d3a565b91507f5472616e73666572206661696c65642e000000000000000000000000000000006000830152602082019050919050565b600061198b601f83611d3a565b91507f5265656e7472616e637947756172643a207265656e7472616e742063616c6c006000830152602082019050919050565b60c0820160008201516119d46000850182611a39565b5060208201516119e76020850182611a39565b5060408201516119fa60408501826117cd565b506060820151611a0d60608501826117cd565b506080820151611a206080850182611a39565b5060a0820151611a3360a08501826117cd565b50505050565b611a4281611e56565b82525050565b611a5181611e56565b82525050565b6000611a6282611924565b9150819050919050565b6000602082019050611a816000830184611760565b92915050565b6000604082019050611a9c6000830185611751565b611aa96020830184611751565b9392505050565b60006020820190508181036000830152611aca818461176f565b905092915050565b6000602082019050611ae760008301846117dc565b92915050565b60006080820190508181036000830152611b0781876117eb565b90508181036020830152611b1b81866117eb565b90508181036040830152611b2f81856117eb565b90508181036060830152611b4381846117eb565b905095945050505050565b60006020820190508181036000830152611b6781611824565b9050919050565b60006020820190508181036000830152611b8781611864565b9050919050565b60006020820190508181036000830152611ba7816118a4565b9050919050565b60006020820190508181036000830152611bc7816118e4565b9050919050565b60006020820190508181036000830152611be78161193e565b9050919050565b60006020820190508181036000830152611c078161197e565b9050919050565b6000602082019050611c236000830184611a48565b92915050565b600060c082019050611c3e6000830189611a48565b611c4b6020830188611a48565b611c5860408301876117dc565b611c6560608301866117dc565b611c726080830185611a48565b611c7f60a08301846117dc565b979650505050505050565b6000604051905081810181811067ffffffffffffffff82111715611cb157611cb0611f97565b5b8060405250919050565b600067ffffffffffffffff821115611cd657611cd5611f97565b5b601f19601f8301169050602081019050919050565b6000819050602082019050919050565b600081519050919050565b600081519050919050565b6000602082019050919050565b600082825260208201905092915050565b600081905092915050565b600082825260208201905092915050565b6000611d5682611e56565b9150611d6183611e56565b9250827fffffffffffffffffffffffffffffffffffffffffffffffffffffffffffffffff03821115611d9657611d95611f0a565b5b828201905092915050565b6000611dac82611e56565b9150611db783611e56565b925082611dc757611dc6611f39565b5b828204905092915050565b6000611ddd82611e56565b9150611de883611e56565b925082821015611dfb57611dfa611f0a565b5b828203905092915050565b6000611e1182611e36565b9050919050565b6000611e2382611e36565b9050919050565b60008115159050919050565b600073ffffffffffffffffffffffffffffffffffffffff82169050919050565b6000819050919050565b6000611e6b82611e72565b9050919050565b6000611e7d82611e84565b9050919050565b6000611e8f82611e36565b9050919050565b82818337600083830152505050565b60005b83811015611ec3578082015181840152602081019050611ea8565b83811115611ed2576000848401525b50505050565b60006002820490506001821680611ef057607f821691505b60208210811415611f0457611f03611f68565b5b50919050565b7f4e487b7100000000000000000000000000000000000000000000000000000000600052601160045260246000fd5b7f4e487b7100000000000000000000000000000000000000000000000000000000600052601260045260246000fd5b7f4e487b7100000000000000000000000000000000000000000000000000000000600052602260045260246000fd5b7f4e487b7100000000000000000000000000000000000000000000000000000000600052604160045260246000fd5b6000601f19601f8301169050919050565b611fe081611e06565b8114611feb57600080fd5b50565b611ff781611e18565b811461200257600080fd5b50565b61200e81611e56565b811461201957600080fd5b5056fea2646970667358221220dd2c4557bc32f398f6bb2e2a4caca7573a051da8f6ee4194b96e90097d745a8064736f6c63430008000033",
  "immutableReferences": {},
  "source": "// SPDX-License-Identifier: UNLICENSED\n\npragma solidity 0.8.0;\nimport \"@openzeppelin/contracts/security/ReentrancyGuard.sol\";\n\n\ncontract Concert is ReentrancyGuard {\n    struct Event {\n    string date;\n    string billing;\n    string city;\n    string venue;\n\n  }\n  \n  Event myEvent;\n  \n  struct Offer {\n    uint guarantee;\n    uint deposit;\n    bool confirmed;\n    bool depositPaid;\n    uint dueDate;\n    bool guaranteePaid;\n  \n      \n  }\n  \n  address payable public purchaser;\n  address payable public artist;\n  bool public confirmedShow;\n  bool finalpayment;\n  \n  mapping(address => uint) public balanceReceived;\n  \n  // events\n  event PartiesCreated(address purchaser, address artist);\n  event EventCreated(string date, string billing, string city, string venue);\n  event OfferCreated(uint guarantee, uint deposit, bool confirmed, bool depositPaid, uint dueDate, bool guaranteePaid);\n  \n  \n  Offer[] public offers;\n  \n   modifier onlyPurchaser() {\n        require(msg.sender == purchaser, \"Only Purchaser!\");\n    _;\n    }\n    \n       modifier onlyArtist() {\n        require(msg.sender == artist, \"Only Artist!\");\n    _;\n    }\n    \n    function createEvent(\n    string memory _date,\n    string memory _billing,\n    string memory _city,\n    string memory _venue\n    \n    )\n    public\n    onlyPurchaser\n     {\n        myEvent.date = _date;\n        myEvent.billing = _billing;\n        myEvent.city = _city;\n        myEvent.venue = _venue;\n        \n        emit EventCreated(_date, _billing, _city, _venue);\n        \n    }\n    \n        function readEvent()\n        public view\n        returns(string memory date, string memory billing, string memory venue, string memory city)\n    {\n        date = myEvent.date;\n        billing = myEvent.billing;\n        venue = myEvent.venue;\n        city = myEvent.city;\n    }\n\n  function createOffer(uint _guarantee, uint _dueDate) \n    public\n    onlyPurchaser\n    {\n    Offer memory offer = Offer({\n        guarantee: _guarantee,\n        dueDate: _dueDate,\n        deposit: _guarantee / 2,\n        confirmed: false,\n        depositPaid: false,\n        guaranteePaid: false\n        \n        \n    });\n    offers.push(offer);\n    \n    emit OfferCreated(_guarantee, offer.deposit, offer.confirmed, offer.depositPaid, _dueDate, offer.guaranteePaid);\n  }\n  \n  function createParties(address payable _purchaser, address payable _artist) public {\n      purchaser = _purchaser;\n      artist = _artist;\n      \n      emit PartiesCreated(_purchaser, _artist);\n    \n  }\n  \n    function getAllOffers() public view returns (Offer[] memory) {\n        return offers;\n    }\n  \n  \n  function approveOffer(uint _index) public onlyArtist nonReentrant() {\n      Offer storage offer = offers[_index];\n      require(address(this).balance >= offer.guarantee, 'Not enough money');\n      offer.confirmed = true;\n      confirmedShow = true;\n    //   require(deposit > 0, 'already sent');\n    (bool success, ) = artist.call{value:offer.deposit}('');\n        \n    require(success, \"Transfer failed.\");\n    offer.guarantee -= offer.deposit;\n    offer.deposit -= offer.deposit;\n    offer.depositPaid = true;\n     \n \n  }\n  \n  function receiveFullGuarantee(uint _index) public onlyArtist nonReentrant() {\n      Offer storage offer = offers[_index];\n      require(block.timestamp >= offer.dueDate);\n      (bool success, ) = artist.call{value:offer.guarantee}('');\n        require(success, \"Transfer failed.\");\n        offer.guarantee -= offer.guarantee;\n        offer.guaranteePaid = true;\n        finalpayment = true;\n      \n  }\n  \n      function getBalance() public view returns(uint) {\n        return address(this).balance;\n    }\n    \n        function sendMoney() public payable onlyPurchaser {\n        balanceReceived[msg.sender] += msg.value;\n        \n    }\n    \n    function cancelShow(uint _index) public onlyPurchaser {\n        Offer storage offer = offers[_index];\n        offer.confirmed = false;\n        purchaser.transfer(address(this).balance);\n        \n    }\n    \n    function withdraw() public onlyPurchaser {\n        require(finalpayment == true, \"You must complete payment\");\n        purchaser.transfer(address(this).balance);\n\n    }\n\n  \n}",
  "sourcePath": "/Users/jonprine/Desktop/ethereum/consensys/blockchain-developer-bootcamp-final-project/contracts/Concert.sol",
  "compiler": {
    "name": "solc",
    "version": "0.8.0+commit.c7dfd78e.Emscripten.clang"
  },
  "schemaVersion": "3.3.4",
  "updatedAt": "2021-11-14T18:36:42.514Z",
  "devdoc": {
    "kind": "dev",
    "methods": {},
    "version": 1
  },
  "userdoc": {
    "kind": "user",
    "methods": {},
    "version": 1
  }
}